{
  "contractName": "Bay",
  "abi": [
    {
      "inputs": [],
      "name": "memberName",
      "outputs": [
        {
          "internalType": "string",
          "name": "",
          "type": "string"
        }
      ],
      "stateMutability": "view",
      "type": "function"
    },
    {
      "inputs": [
        {
          "internalType": "address",
          "name": "",
          "type": "address"
        }
      ],
      "name": "members",
      "outputs": [
        {
          "internalType": "contract DaoMember",
          "name": "",
          "type": "address"
        }
      ],
      "stateMutability": "view",
      "type": "function"
    },
    {
      "inputs": [],
      "name": "name",
      "outputs": [
        {
          "internalType": "string",
          "name": "",
          "type": "string"
        }
      ],
      "stateMutability": "view",
      "type": "function"
    }
  ],
  "bytecode": "0x608060405234801561001057600080fd5b506040518060400160405280600381526020017f42617900000000000000000000000000000000000000000000000000000000008152506040518060400160405280600581526020017f426179656500000000000000000000000000000000000000000000000000000081525081600090805190602001906100939291906100b2565b5080600190805190602001906100aa9291906100b2565b5050506101b6565b8280546100be90610184565b90600052602060002090601f0160209004810192826100e05760008555610127565b82601f106100f957805160ff1916838001178555610127565b82800160010185558215610127579182015b8281111561012657825182559160200191906001019061010b565b5b5090506101349190610138565b5090565b5b80821115610151576000816000905550600101610139565b5090565b7f4e487b7100000000000000000000000000000000000000000000000000000000600052602260045260246000fd5b6000600282049050600182168061019c57607f821691505b602082108114156101b0576101af610155565b5b50919050565b610465806101c56000396000f3fe608060405234801561001057600080fd5b50600436106100415760003560e01c806306fdde031461004657806307c213831461006457806308ae4b0c14610082575b600080fd5b61004e6100b2565b60405161005b91906102a2565b60405180910390f35b61006c610144565b60405161007991906102a2565b60405180910390f35b61009c60048036038101906100979190610327565b6101d6565b6040516100a991906103b3565b60405180910390f35b6060600080546100c1906103fd565b80601f01602080910402602001604051908101604052809291908181526020018280546100ed906103fd565b801561013a5780601f1061010f5761010080835404028352916020019161013a565b820191906000526020600020905b81548152906001019060200180831161011d57829003601f168201915b5050505050905090565b606060018054610153906103fd565b80601f016020809104026020016040519081016040528092919081815260200182805461017f906103fd565b80156101cc5780601f106101a1576101008083540402835291602001916101cc565b820191906000526020600020905b8154815290600101906020018083116101af57829003601f168201915b5050505050905090565b60026020528060005260406000206000915054906101000a900473ffffffffffffffffffffffffffffffffffffffff1681565b600081519050919050565b600082825260208201905092915050565b60005b83811015610243578082015181840152602081019050610228565b83811115610252576000848401525b50505050565b6000601f19601f8301169050919050565b600061027482610209565b61027e8185610214565b935061028e818560208601610225565b61029781610258565b840191505092915050565b600060208201905081810360008301526102bc8184610269565b905092915050565b600080fd5b600073ffffffffffffffffffffffffffffffffffffffff82169050919050565b60006102f4826102c9565b9050919050565b610304816102e9565b811461030f57600080fd5b50565b600081359050610321816102fb565b92915050565b60006020828403121561033d5761033c6102c4565b5b600061034b84828501610312565b91505092915050565b6000819050919050565b600061037961037461036f846102c9565b610354565b6102c9565b9050919050565b600061038b8261035e565b9050919050565b600061039d82610380565b9050919050565b6103ad81610392565b82525050565b60006020820190506103c860008301846103a4565b92915050565b7f4e487b7100000000000000000000000000000000000000000000000000000000600052602260045260246000fd5b6000600282049050600182168061041557607f821691505b60208210811415610429576104286103ce565b5b5091905056fea2646970667358221220cc28005b84909ed9eedf44a0cba97489865362488f98dce60412a53470a89f3964736f6c63430008090033",
  "immutableReferences": {},
  "source": "// SPDX-License-Identifier: MIT\npragma solidity >=0.8.0;\n\nimport \"./Dao.sol\";\n\ncontract Bay is Dao(\"Bay\", \"Bayee\") {}\n",
  "sourcePath": "/Users/chungquantin/Desktop/Projects/DecentralizedOpenSource/smart-bay/contracts/features/dao/Bay.sol",
  "compiler": {
    "name": "solc",
    "version": "0.8.9+commit.e5eed63a.Emscripten.clang"
  },
  "schemaVersion": "3.4.3",
  "updatedAt": "2021-10-30T09:42:21.622Z",
  "devdoc": {
    "kind": "dev",
    "methods": {},
    "version": 1
  },
  "userdoc": {
    "kind": "user",
    "methods": {},
    "version": 1
  }
}