{
  "contractName": "Bayee",
  "abi": [
    {
      "inputs": [],
      "name": "info",
      "outputs": [
        {
          "internalType": "string",
          "name": "",
          "type": "string"
        }
      ],
      "stateMutability": "view",
      "type": "function"
    },
    {
      "inputs": [],
      "name": "stake",
      "outputs": [
        {
          "internalType": "bool",
          "name": "",
          "type": "bool"
        }
      ],
      "stateMutability": "nonpayable",
      "type": "function"
    },
    {
      "inputs": [],
      "name": "totalStakedToken",
      "outputs": [
        {
          "internalType": "uint256",
          "name": "",
          "type": "uint256"
        }
      ],
      "stateMutability": "view",
      "type": "function"
    },
    {
      "inputs": [],
      "name": "unvote",
      "outputs": [
        {
          "internalType": "bool",
          "name": "",
          "type": "bool"
        }
      ],
      "stateMutability": "nonpayable",
      "type": "function"
    },
    {
      "inputs": [],
      "name": "vote",
      "outputs": [
        {
          "internalType": "bool",
          "name": "",
          "type": "bool"
        }
      ],
      "stateMutability": "nonpayable",
      "type": "function"
    }
  ],
  "bytecode": "0x608060405234801561001057600080fd5b50610266806100206000396000f3fe608060405234801561001057600080fd5b50600436106100575760003560e01c80633174b6891461005c578063370158ea1461007a5780633a4b66f114610098578063632a9a52146100b6578063cb6d8ee6146100d4575b600080fd5b6100646100f2565b6040516100719190610126565b60405180910390f35b6100826100f7565b60405161008f91906101da565b60405180910390f35b6100a06100fc565b6040516100ad9190610126565b60405180910390f35b6100be610101565b6040516100cb9190610126565b60405180910390f35b6100dc610106565b6040516100e99190610215565b60405180910390f35b600090565b606090565b600090565b600090565b600090565b60008115159050919050565b6101208161010b565b82525050565b600060208201905061013b6000830184610117565b92915050565b600081519050919050565b600082825260208201905092915050565b60005b8381101561017b578082015181840152602081019050610160565b8381111561018a576000848401525b50505050565b6000601f19601f8301169050919050565b60006101ac82610141565b6101b6818561014c565b93506101c681856020860161015d565b6101cf81610190565b840191505092915050565b600060208201905081810360008301526101f481846101a1565b905092915050565b6000819050919050565b61020f816101fc565b82525050565b600060208201905061022a6000830184610206565b9291505056fea2646970667358221220aaeff1e7676337fdf981820febe641508ad91419baf2c3cdc2d60a4528b3f3c264736f6c63430008090033",
  "immutableReferences": {},
  "source": "// SPDX-License-Identifier: MIT\npragma solidity >=0.8.0;\n\nimport \"./DaoMember.sol\";\n\ncontract Bayee is DaoMember {}\n",
  "sourcePath": "/Users/chungquantin/Desktop/Projects/DecentralizedOpenSource/smart-bay/contracts/features/dao/Bayee.sol",
  "compiler": {
    "name": "solc",
    "version": "0.8.9+commit.e5eed63a.Emscripten.clang"
  },
  "schemaVersion": "3.4.3",
  "updatedAt": "2021-10-30T09:42:21.624Z",
  "devdoc": {
    "kind": "dev",
    "methods": {},
    "version": 1
  },
  "userdoc": {
    "kind": "user",
    "methods": {},
    "version": 1
  }
}