{
  "contractName": "TreasureBay",
  "abi": [
    {
      "inputs": [
        {
          "internalType": "string",
          "name": "name_",
          "type": "string"
        },
        {
          "internalType": "uint64",
          "name": "limitNumberOfStakeholders_",
          "type": "uint64"
        },
        {
          "internalType": "uint64",
          "name": "limitNumberOfTreasureHunters_",
          "type": "uint64"
        }
      ],
      "stateMutability": "payable",
      "type": "constructor"
    },
    {
      "anonymous": false,
      "inputs": [
        {
          "indexed": false,
          "internalType": "address",
          "name": "owner",
          "type": "address"
        },
        {
          "indexed": false,
          "internalType": "uint256",
          "name": "lockedAmount",
          "type": "uint256"
        }
      ],
      "name": "NewPoolCreated",
      "type": "event"
    },
    {
      "anonymous": false,
      "inputs": [
        {
          "indexed": false,
          "internalType": "address",
          "name": "stakeholder",
          "type": "address"
        }
      ],
      "name": "NewStakeholder",
      "type": "event"
    },
    {
      "anonymous": false,
      "inputs": [
        {
          "indexed": false,
          "internalType": "string",
          "name": "_title",
          "type": "string"
        },
        {
          "indexed": false,
          "internalType": "address",
          "name": "_sourceAddress",
          "type": "address"
        },
        {
          "indexed": false,
          "internalType": "address",
          "name": "_destinationAddress",
          "type": "address"
        },
        {
          "indexed": false,
          "internalType": "uint256",
          "name": "_amount",
          "type": "uint256"
        }
      ],
      "name": "NewTransferProposalAdded",
      "type": "event"
    },
    {
      "anonymous": false,
      "inputs": [
        {
          "indexed": false,
          "internalType": "address",
          "name": "treasureHunter",
          "type": "address"
        },
        {
          "indexed": false,
          "internalType": "uint256",
          "name": "timestamp",
          "type": "uint256"
        }
      ],
      "name": "NewTreasureHunter",
      "type": "event"
    },
    {
      "anonymous": false,
      "inputs": [
        {
          "indexed": true,
          "internalType": "uint256",
          "name": "proposalID",
          "type": "uint256"
        },
        {
          "indexed": false,
          "internalType": "address",
          "name": "recipient",
          "type": "address"
        },
        {
          "indexed": false,
          "internalType": "uint256",
          "name": "amount",
          "type": "uint256"
        },
        {
          "indexed": false,
          "internalType": "string",
          "name": "description",
          "type": "string"
        }
      ],
      "name": "ProposalAdded",
      "type": "event"
    },
    {
      "anonymous": false,
      "inputs": [
        {
          "indexed": false,
          "internalType": "address",
          "name": "stakeholder",
          "type": "address"
        }
      ],
      "name": "RemoveStakeholder",
      "type": "event"
    },
    {
      "anonymous": false,
      "inputs": [
        {
          "indexed": false,
          "internalType": "address",
          "name": "stakeholder",
          "type": "address"
        },
        {
          "indexed": false,
          "internalType": "uint256",
          "name": "amount",
          "type": "uint256"
        }
      ],
      "name": "Stake",
      "type": "event"
    },
    {
      "anonymous": false,
      "inputs": [
        {
          "indexed": false,
          "internalType": "address",
          "name": "stakeholder",
          "type": "address"
        },
        {
          "indexed": false,
          "internalType": "uint256",
          "name": "amount",
          "type": "uint256"
        }
      ],
      "name": "Unstake",
      "type": "event"
    },
    {
      "anonymous": false,
      "inputs": [
        {
          "indexed": true,
          "internalType": "uint256",
          "name": "proposalID",
          "type": "uint256"
        },
        {
          "indexed": false,
          "internalType": "bool",
          "name": "position",
          "type": "bool"
        },
        {
          "indexed": true,
          "internalType": "address",
          "name": "voter",
          "type": "address"
        }
      ],
      "name": "Voted",
      "type": "event"
    },
    {
      "inputs": [],
      "name": "admin",
      "outputs": [
        {
          "internalType": "address",
          "name": "",
          "type": "address"
        }
      ],
      "stateMutability": "view",
      "type": "function"
    },
    {
      "inputs": [
        {
          "internalType": "address",
          "name": "",
          "type": "address"
        }
      ],
      "name": "allowedRecipients",
      "outputs": [
        {
          "internalType": "bool",
          "name": "",
          "type": "bool"
        }
      ],
      "stateMutability": "view",
      "type": "function"
    },
    {
      "inputs": [],
      "name": "claim",
      "outputs": [],
      "stateMutability": "payable",
      "type": "function"
    },
    {
      "inputs": [],
      "name": "createStakeholder",
      "outputs": [
        {
          "components": [
            {
              "internalType": "uint256",
              "name": "balance",
              "type": "uint256"
            },
            {
              "internalType": "address",
              "name": "contractAddress",
              "type": "address"
            },
            {
              "internalType": "uint256",
              "name": "claimedInterval",
              "type": "uint256"
            },
            {
              "internalType": "uint256",
              "name": "joinedAt",
              "type": "uint256"
            }
          ],
          "internalType": "struct TreasurePool.Stakeholder",
          "name": "",
          "type": "tuple"
        }
      ],
      "stateMutability": "nonpayable",
      "type": "function"
    },
    {
      "inputs": [],
      "name": "daoAddress",
      "outputs": [
        {
          "internalType": "address",
          "name": "",
          "type": "address"
        }
      ],
      "stateMutability": "view",
      "type": "function"
    },
    {
      "inputs": [
        {
          "internalType": "uint256",
          "name": "",
          "type": "uint256"
        }
      ],
      "name": "exchangeProposals",
      "outputs": [
        {
          "internalType": "contract ExchangeProposal",
          "name": "",
          "type": "address"
        }
      ],
      "stateMutability": "view",
      "type": "function"
    },
    {
      "inputs": [],
      "name": "getAllTransferProposals",
      "outputs": [
        {
          "internalType": "contract TransferProposal[]",
          "name": "",
          "type": "address[]"
        }
      ],
      "stateMutability": "view",
      "type": "function"
    },
    {
      "inputs": [
        {
          "internalType": "address",
          "name": "_proposalAddress",
          "type": "address"
        }
      ],
      "name": "getTransferProposal",
      "outputs": [
        {
          "internalType": "contract TransferProposal",
          "name": "",
          "type": "address"
        }
      ],
      "stateMutability": "view",
      "type": "function"
    },
    {
      "inputs": [],
      "name": "limitNumberOfStakeholders",
      "outputs": [
        {
          "internalType": "uint64",
          "name": "",
          "type": "uint64"
        }
      ],
      "stateMutability": "view",
      "type": "function"
    },
    {
      "inputs": [],
      "name": "minimumStakedAmount",
      "outputs": [
        {
          "internalType": "uint64",
          "name": "",
          "type": "uint64"
        }
      ],
      "stateMutability": "view",
      "type": "function"
    },
    {
      "inputs": [],
      "name": "numberOfStakeholders",
      "outputs": [
        {
          "internalType": "uint64",
          "name": "",
          "type": "uint64"
        }
      ],
      "stateMutability": "view",
      "type": "function"
    },
    {
      "inputs": [],
      "name": "stake",
      "outputs": [],
      "stateMutability": "payable",
      "type": "function"
    },
    {
      "inputs": [
        {
          "internalType": "address",
          "name": "",
          "type": "address"
        }
      ],
      "name": "stakeholders",
      "outputs": [
        {
          "internalType": "uint256",
          "name": "balance",
          "type": "uint256"
        },
        {
          "internalType": "address",
          "name": "contractAddress",
          "type": "address"
        },
        {
          "internalType": "uint256",
          "name": "claimedInterval",
          "type": "uint256"
        },
        {
          "internalType": "uint256",
          "name": "joinedAt",
          "type": "uint256"
        }
      ],
      "stateMutability": "view",
      "type": "function"
    },
    {
      "inputs": [],
      "name": "totalNumberOfStakeholders",
      "outputs": [
        {
          "internalType": "uint64",
          "name": "",
          "type": "uint64"
        }
      ],
      "stateMutability": "view",
      "type": "function"
    },
    {
      "inputs": [],
      "name": "totalStakedAmount",
      "outputs": [
        {
          "internalType": "uint256",
          "name": "",
          "type": "uint256"
        }
      ],
      "stateMutability": "view",
      "type": "function"
    },
    {
      "inputs": [
        {
          "internalType": "address",
          "name": "",
          "type": "address"
        }
      ],
      "name": "treasureHunters",
      "outputs": [
        {
          "internalType": "address",
          "name": "contractAddress",
          "type": "address"
        },
        {
          "internalType": "uint256",
          "name": "joinedAt",
          "type": "uint256"
        }
      ],
      "stateMutability": "view",
      "type": "function"
    },
    {
      "inputs": [],
      "name": "unstake",
      "outputs": [],
      "stateMutability": "payable",
      "type": "function"
    },
    {
      "inputs": [],
      "name": "name",
      "outputs": [
        {
          "internalType": "string",
          "name": "",
          "type": "string"
        }
      ],
      "stateMutability": "view",
      "type": "function"
    },
    {
      "inputs": [],
      "name": "creator",
      "outputs": [
        {
          "internalType": "address",
          "name": "",
          "type": "address"
        }
      ],
      "stateMutability": "view",
      "type": "function"
    },
    {
      "inputs": [],
      "name": "limitNumberOfTreasureHunters",
      "outputs": [
        {
          "internalType": "uint64",
          "name": "",
          "type": "uint64"
        }
      ],
      "stateMutability": "view",
      "type": "function"
    },
    {
      "inputs": [],
      "name": "listOfTreasureHunters",
      "outputs": [
        {
          "components": [
            {
              "internalType": "address",
              "name": "contractAddress",
              "type": "address"
            },
            {
              "internalType": "uint256",
              "name": "joinedAt",
              "type": "uint256"
            }
          ],
          "internalType": "struct TreasureBay.TreasureHunter[]",
          "name": "",
          "type": "tuple[]"
        }
      ],
      "stateMutability": "view",
      "type": "function"
    },
    {
      "inputs": [],
      "name": "createTreasureHunter",
      "outputs": [
        {
          "components": [
            {
              "internalType": "address",
              "name": "contractAddress",
              "type": "address"
            },
            {
              "internalType": "uint256",
              "name": "joinedAt",
              "type": "uint256"
            }
          ],
          "internalType": "struct TreasureBay.TreasureHunter",
          "name": "",
          "type": "tuple"
        }
      ],
      "stateMutability": "nonpayable",
      "type": "function"
    },
    {
      "inputs": [
        {
          "internalType": "bool",
          "name": "isActivated_",
          "type": "bool"
        }
      ],
      "name": "toggleIsActivated",
      "outputs": [
        {
          "internalType": "bool",
          "name": "_success",
          "type": "bool"
        }
      ],
      "stateMutability": "nonpayable",
      "type": "function"
    },
    {
      "inputs": [
        {
          "internalType": "string",
          "name": "_title",
          "type": "string"
        },
        {
          "internalType": "string",
          "name": "_description",
          "type": "string"
        },
        {
          "internalType": "uint64",
          "name": "_debatingPeriod",
          "type": "uint64"
        },
        {
          "internalType": "address",
          "name": "_recipient",
          "type": "address"
        },
        {
          "internalType": "uint256",
          "name": "_amount",
          "type": "uint256"
        }
      ],
      "name": "createNewTransferProposal",
      "outputs": [
        {
          "internalType": "uint256",
          "name": "",
          "type": "uint256"
        }
      ],
      "stateMutability": "nonpayable",
      "type": "function"
    }
  ],
  "bytecode": "0x608060405262093a80600460106101000a81548167ffffffffffffffff021916908367ffffffffffffffff1602179055506203f480600460186101000a81548167ffffffffffffffff021916908367ffffffffffffffff1602179055506000600d60006101000a81548160ff02191690831515021790555060405162004eee38038062004eee83398181016040528101906200009c91906200044a565b620000ac620001b060201b60201c565b600160086101000a81548173ffffffffffffffffffffffffffffffffffffffff021916908373ffffffffffffffffffffffffffffffffffffffff16021790555081600460006101000a81548167ffffffffffffffff021916908367ffffffffffffffff16021790555080600a60146101000a81548167ffffffffffffffff021916908367ffffffffffffffff160217905550826009908051906020019062000156929190620001b8565b5062000167620001b060201b60201c565b600a60006101000a81548173ffffffffffffffffffffffffffffffffffffffff021916908373ffffffffffffffffffffffffffffffffffffffff1602179055505050506200052a565b600033905090565b828054620001c690620004f4565b90600052602060002090601f016020900481019282620001ea576000855562000236565b82601f106200020557805160ff191683800117855562000236565b8280016001018555821562000236579182015b828111156200023557825182559160200191906001019062000218565b5b50905062000245919062000249565b5090565b5b80821115620002645760008160009055506001016200024a565b5090565b6000604051905090565b600080fd5b600080fd5b600080fd5b600080fd5b6000601f19601f8301169050919050565b7f4e487b7100000000000000000000000000000000000000000000000000000000600052604160045260246000fd5b620002d18262000286565b810181811067ffffffffffffffff82111715620002f357620002f262000297565b5b80604052505050565b60006200030862000268565b9050620003168282620002c6565b919050565b600067ffffffffffffffff82111562000339576200033862000297565b5b620003448262000286565b9050602081019050919050565b60005b838110156200037157808201518184015260208101905062000354565b8381111562000381576000848401525b50505050565b60006200039e62000398846200031b565b620002fc565b905082815260208101848484011115620003bd57620003bc62000281565b5b620003ca84828562000351565b509392505050565b600082601f830112620003ea57620003e96200027c565b5b8151620003fc84826020860162000387565b91505092915050565b600067ffffffffffffffff82169050919050565b620004248162000405565b81146200043057600080fd5b50565b600081519050620004448162000419565b92915050565b60008060006060848603121562000466576200046562000272565b5b600084015167ffffffffffffffff81111562000487576200048662000277565b5b6200049586828701620003d2565b9350506020620004a88682870162000433565b9250506040620004bb8682870162000433565b9150509250925092565b7f4e487b7100000000000000000000000000000000000000000000000000000000600052602260045260246000fd5b600060028204905060018216806200050d57607f821691505b60208210811415620005245762000523620004c5565b5b50919050565b6149b4806200053a6000396000f3fe6080604052600436106200016a5760003560e01c8063567e98f911620000c757806384780fd2116200007957806384780fd214620004dc578063b898e601146200050c578063c07cfca9146200053c578063cd555bf11462000583578063f851a44014620005b3578063f8d41b9614620005e3576200016a565b8063567e98f914620003945780635f9fed5514620003c457806362c48ae71462000408578063665e3d8314620004385780637ddf5c04146200047c5780637f6f4e9c14620004ac576200016a565b80632def662011620001215780632def662014620002a45780633a4b66f114620002b05780633b5b4f2c14620002bc5780634df6d6cc14620003005780634e71d92d146200034457806352d4aedc1462000350576200016a565b806302d05d3f146200016f57806306fdde03146200019f5780631e3ab98314620001cf5780632131c68c14620001ff578063246d59af146200022f57806328cd14941462000274575b600080fd5b3480156200017c57600080fd5b506200018762000613565b60405162000196919062001c1d565b60405180910390f35b348015620001ac57600080fd5b50620001b76200063d565b604051620001c6919062001cde565b60405180910390f35b348015620001dc57600080fd5b50620001e7620006d7565b604051620001f6919062001d27565b60405180910390f35b3480156200020c57600080fd5b5062000217620006f1565b60405162000226919062001c1d565b60405180910390f35b3480156200023c57600080fd5b506200025b600480360381019062000255919062001d89565b62000717565b6040516200026b92919062001dd6565b60405180910390f35b3480156200028157600080fd5b506200028c6200075b565b6040516200029b919062001d27565b60405180910390f35b620002ae62000775565b005b620002ba62000bd3565b005b348015620002c957600080fd5b50620002e86004803603810190620002e2919062001e34565b62000da2565b604051620002f7919062001ed1565b60405180910390f35b3480156200030d57600080fd5b506200032c600480360381019062000326919062001d89565b62000de2565b6040516200033b919062001f0b565b60405180910390f35b6200034e62000e02565b005b3480156200035d57600080fd5b506200037c6004803603810190620003769190620020aa565b62000f75565b6040516200038b919062002170565b60405180910390f35b348015620003a157600080fd5b50620003ac62001021565b604051620003bb919062002170565b60405180910390f35b348015620003d157600080fd5b50620003f06004803603810190620003ea919062001d89565b62001027565b604051620003ff9190620021b2565b60405180910390f35b3480156200041557600080fd5b506200042062001090565b6040516200042f919062002224565b60405180910390f35b3480156200044557600080fd5b506200046460048036038101906200045e919062002272565b62001436565b60405162000473919062001f0b565b60405180910390f35b3480156200048957600080fd5b50620004946200145b565b604051620004a3919062002372565b60405180910390f35b348015620004b957600080fd5b50620004c4620014eb565b604051620004d3919062002486565b60405180910390f35b348015620004e957600080fd5b50620004f4620015ac565b60405162000503919062001d27565b60405180910390f35b3480156200051957600080fd5b5062000524620015c6565b60405162000533919062001d27565b60405180910390f35b3480156200054957600080fd5b5062000568600480360381019062000562919062001d89565b620015e0565b6040516200057a9493929190620024aa565b60405180910390f35b3480156200059057600080fd5b506200059b62001630565b604051620005aa919062001d27565b60405180910390f35b348015620005c057600080fd5b50620005cb6200164e565b604051620005da919062001c1d565b60405180910390f35b348015620005f057600080fd5b50620005fb62001674565b6040516200060a919062002554565b60405180910390f35b6000600a60009054906101000a900473ffffffffffffffffffffffffffffffffffffffff16905090565b6060600980546200064e90620025a0565b80601f01602080910402602001604051908101604052809291908181526020018280546200067c90620025a0565b8015620006cd5780601f10620006a157610100808354040283529160200191620006cd565b820191906000526020600020905b815481529060010190602001808311620006af57829003601f168201915b5050505050905090565b600160009054906101000a900467ffffffffffffffff1681565b600260009054906101000a900473ffffffffffffffffffffffffffffffffffffffff1681565b600c6020528060005260406000206000915090508060000160009054906101000a900473ffffffffffffffffffffffffffffffffffffffff16908060010154905082565b600460009054906101000a900467ffffffffffffffff1681565b600080600062000784620019dc565b73ffffffffffffffffffffffffffffffffffffffff1673ffffffffffffffffffffffffffffffffffffffff168152602001908152602001600020600001541162000805576040517f08c379a0000000000000000000000000000000000000000000000000000000008152600401620007fc9062002626565b60405180910390fd5b600460109054906101000a900467ffffffffffffffff1667ffffffffffffffff1660008062000833620019dc565b73ffffffffffffffffffffffffffffffffffffffff1673ffffffffffffffffffffffffffffffffffffffff168152602001908152602001600020600301546200087d919062002677565b4211620008c1576040517f08c379a0000000000000000000000000000000000000000000000000000000008152600401620008b8906200274a565b60405180910390fd5b600080620008ce620019dc565b73ffffffffffffffffffffffffffffffffffffffff1673ffffffffffffffffffffffffffffffffffffffff1681526020019081526020016000206000015434111562000951576040517f08c379a00000000000000000000000000000000000000000000000000000000081526004016200094890620027bc565b60405180910390fd5b6200095b620019dc565b73ffffffffffffffffffffffffffffffffffffffff166108fc349081150290604051600060405180830381858888f19350505050158015620009a1573d6000803e3d6000fd5b5034600080620009b0620019dc565b73ffffffffffffffffffffffffffffffffffffffff1673ffffffffffffffffffffffffffffffffffffffff1681526020019081526020016000206000016000828254620009fe919062002677565b92505081905550600080600062000a14620019dc565b73ffffffffffffffffffffffffffffffffffffffff1673ffffffffffffffffffffffffffffffffffffffff16815260200190815260200160002060000154141562000b725760008062000a66620019dc565b73ffffffffffffffffffffffffffffffffffffffff1673ffffffffffffffffffffffffffffffffffffffff1681526020019081526020016000206000808201600090556001820160006101000a81549073ffffffffffffffffffffffffffffffffffffffff021916905560028201600090556003820160009055505060018060008282829054906101000a900467ffffffffffffffff1662000b099190620027de565b92506101000a81548167ffffffffffffffff021916908367ffffffffffffffff1602179055507f6f1eb9379ef97a9fc8efe5b92a387d1291f5c65d0929df551aea69371e05403c62000b5a620019dc565b60405162000b69919062001c1d565b60405180910390a15b346003600082825462000b86919062002819565b925050819055507f85082129d87b2fe11527cb1b3b7a520aeb5aa6913f88a3d8757fe40d1db02fdd62000bb8620019dc565b3460405162000bc992919062001dd6565b60405180910390a1565b6000341162000c19576040517f08c379a000000000000000000000000000000000000000000000000000000000815260040162000c1090620028a4565b60405180910390fd5b600560009054906101000a900467ffffffffffffffff1667ffffffffffffffff16341162000c7e576040517f08c379a000000000000000000000000000000000000000000000000000000000815260040162000c7590620028a4565b60405180910390fd5b600080600062000c8d620019dc565b73ffffffffffffffffffffffffffffffffffffffff1673ffffffffffffffffffffffffffffffffffffffff16815260200190815260200160002060000154141562000cde5762000cdc62001674565b505b3460008062000cec620019dc565b73ffffffffffffffffffffffffffffffffffffffff1673ffffffffffffffffffffffffffffffffffffffff168152602001908152602001600020600001600082825462000d3a919062002677565b92505081905550346003600082825462000d55919062002677565b925050819055507febedb8b3c678666e7f36970bc8f57abf6d8fa2e828c0da91ea5b75bf68ed101a62000d87620019dc565b3460405162000d9892919062001dd6565b60405180910390a1565b6008818154811062000db357600080fd5b906000526020600020016000915054906101000a900473ffffffffffffffffffffffffffffffffffffffff1681565b600e6020528060005260406000206000915054906101000a900460ff1681565b600080600062000e11620019dc565b73ffffffffffffffffffffffffffffffffffffffff1673ffffffffffffffffffffffffffffffffffffffff168152602001908152602001600020600001541162000e92576040517f08c379a000000000000000000000000000000000000000000000000000000000815260040162000e899062002626565b60405180910390fd5b60008062000e9f620019dc565b73ffffffffffffffffffffffffffffffffffffffff1673ffffffffffffffffffffffffffffffffffffffff16815260200190815260200160002060020154421162000f21576040517f08c379a000000000000000000000000000000000000000000000000000000000815260040162000f189062002916565b60405180910390fd5b6203f48060008062000f32620019dc565b73ffffffffffffffffffffffffffffffffffffffff1673ffffffffffffffffffffffffffffffffffffffff16815260200190815260200160002060020181905550565b6000806000803373ffffffffffffffffffffffffffffffffffffffff1673ffffffffffffffffffffffffffffffffffffffff168152602001908152602001600020600001541162000ffd576040517f08c379a000000000000000000000000000000000000000000000000000000000815260040162000ff49062002988565b60405180910390fd5b6200101686868667ffffffffffffffff168686620019e4565b905095945050505050565b60035481565b6000600760008373ffffffffffffffffffffffffffffffffffffffff1673ffffffffffffffffffffffffffffffffffffffff16815260200190815260200160002060009054906101000a900473ffffffffffffffffffffffffffffffffffffffff169050919050565b6200109a62001b5c565b600a60149054906101000a900467ffffffffffffffff1667ffffffffffffffff16600b80549050111562001105576040517f08c379a0000000000000000000000000000000000000000000000000000000008152600401620010fc9062002a20565b60405180910390fd5b60405180604001604052806200111a620019dc565b73ffffffffffffffffffffffffffffffffffffffff16815260200142815250600c600062001147620019dc565b73ffffffffffffffffffffffffffffffffffffffff1673ffffffffffffffffffffffffffffffffffffffff16815260200190815260200160002060008201518160000160006101000a81548173ffffffffffffffffffffffffffffffffffffffff021916908373ffffffffffffffffffffffffffffffffffffffff16021790555060208201518160010155905050600b600c6000620011e5620019dc565b73ffffffffffffffffffffffffffffffffffffffff1673ffffffffffffffffffffffffffffffffffffffff16815260200190815260200160002090806001815401808255809150506001900390600052602060002090600202016000909190919091506000820160009054906101000a900473ffffffffffffffffffffffffffffffffffffffff168160000160006101000a81548173ffffffffffffffffffffffffffffffffffffffff021916908373ffffffffffffffffffffffffffffffffffffffff1602179055506001820154816001015550506005600b805490501115620012d857620012d6600162001436565b505b7fef7dd88fd6e07a1960a539671612f14f6e19471ee795cade675fb83c94267415600c600062001307620019dc565b73ffffffffffffffffffffffffffffffffffffffff1673ffffffffffffffffffffffffffffffffffffffff16815260200190815260200160002060000160009054906101000a900473ffffffffffffffffffffffffffffffffffffffff16426040516200137692919062001dd6565b60405180910390a1600c60006200138c620019dc565b73ffffffffffffffffffffffffffffffffffffffff1673ffffffffffffffffffffffffffffffffffffffff1681526020019081526020016000206040518060400160405290816000820160009054906101000a900473ffffffffffffffffffffffffffffffffffffffff1673ffffffffffffffffffffffffffffffffffffffff1673ffffffffffffffffffffffffffffffffffffffff168152602001600182015481525050905090565b600081600d60006101000a81548160ff02191690831515021790555060019050919050565b60606006805480602002602001604051908101604052809291908181526020018280548015620014e157602002820191906000526020600020905b8160009054906101000a900473ffffffffffffffffffffffffffffffffffffffff1673ffffffffffffffffffffffffffffffffffffffff168152602001906001019080831162001496575b5050505050905090565b6060600b805480602002602001604051908101604052809291908181526020016000905b82821015620015a357838290600052602060002090600202016040518060400160405290816000820160009054906101000a900473ffffffffffffffffffffffffffffffffffffffff1673ffffffffffffffffffffffffffffffffffffffff1673ffffffffffffffffffffffffffffffffffffffff168152602001600182015481525050815260200190600101906200150f565b50505050905090565b600460089054906101000a900467ffffffffffffffff1681565b600560009054906101000a900467ffffffffffffffff1681565b60006020528060005260406000206000915090508060000154908060010160009054906101000a900473ffffffffffffffffffffffffffffffffffffffff16908060020154908060030154905084565b6000600a60149054906101000a900467ffffffffffffffff16905090565b600160089054906101000a900473ffffffffffffffffffffffffffffffffffffffff1681565b6200167e62001b8c565b600460009054906101000a900467ffffffffffffffff1667ffffffffffffffff16600160009054906101000a900467ffffffffffffffff1667ffffffffffffffff16111562001704576040517f08c379a0000000000000000000000000000000000000000000000000000000008152600401620016fb9062002ab8565b60405180910390fd5b60405180608001604052806000815260200162001720620019dc565b73ffffffffffffffffffffffffffffffffffffffff168152602001600460189054906101000a900467ffffffffffffffff1667ffffffffffffffff164262001769919062002677565b8152602001428152506000806200177f620019dc565b73ffffffffffffffffffffffffffffffffffffffff1673ffffffffffffffffffffffffffffffffffffffff1681526020019081526020016000206000820151816000015560208201518160010160006101000a81548173ffffffffffffffffffffffffffffffffffffffff021916908373ffffffffffffffffffffffffffffffffffffffff160217905550604082015181600201556060820151816003015590505060018060008282829054906101000a900467ffffffffffffffff1662001848919062002ada565b92506101000a81548167ffffffffffffffff021916908367ffffffffffffffff1602179055507f45353ebbf1c4a0468ba13a94bc212a3b8fc4b624385aa0e9c3fa07045d7d827d6000806200189c620019dc565b73ffffffffffffffffffffffffffffffffffffffff1673ffffffffffffffffffffffffffffffffffffffff16815260200190815260200160002060010160009054906101000a900473ffffffffffffffffffffffffffffffffffffffff1660405162001909919062001c1d565b60405180910390a16000806200191e620019dc565b73ffffffffffffffffffffffffffffffffffffffff1673ffffffffffffffffffffffffffffffffffffffff168152602001908152602001600020604051806080016040529081600082015481526020016001820160009054906101000a900473ffffffffffffffffffffffffffffffffffffffff1673ffffffffffffffffffffffffffffffffffffffff1673ffffffffffffffffffffffffffffffffffffffff16815260200160028201548152602001600382015481525050905090565b600033905090565b6000808587868686604051620019fa9062001bca565b62001a0a95949392919062002b1f565b604051809103906000f08015801562001a27573d6000803e3d6000fd5b5090506006819080600181540180825580915050600190039060005260206000200160009091909190916101000a81548173ffffffffffffffffffffffffffffffffffffffff021916908373ffffffffffffffffffffffffffffffffffffffff16021790555080600760008373ffffffffffffffffffffffffffffffffffffffff1673ffffffffffffffffffffffffffffffffffffffff16815260200190815260200160002060006101000a81548173ffffffffffffffffffffffffffffffffffffffff021916908373ffffffffffffffffffffffffffffffffffffffff1602179055507fa9a62b7c28d7da43010d6fdf373b4026f4156bc0402ee1b0bdf2acf13a7414218733868660405162001b42949392919062002b8a565b60405180910390a160068054905091505095945050505050565b6040518060400160405280600073ffffffffffffffffffffffffffffffffffffffff168152602001600081525090565b604051806080016040528060008152602001600073ffffffffffffffffffffffffffffffffffffffff16815260200160008152602001600081525090565b611da08062002bdf83390190565b600073ffffffffffffffffffffffffffffffffffffffff82169050919050565b600062001c058262001bd8565b9050919050565b62001c178162001bf8565b82525050565b600060208201905062001c34600083018462001c0c565b92915050565b600081519050919050565b600082825260208201905092915050565b60005b8381101562001c7657808201518184015260208101905062001c59565b8381111562001c86576000848401525b50505050565b6000601f19601f8301169050919050565b600062001caa8262001c3a565b62001cb6818562001c45565b935062001cc881856020860162001c56565b62001cd38162001c8c565b840191505092915050565b6000602082019050818103600083015262001cfa818462001c9d565b905092915050565b600067ffffffffffffffff82169050919050565b62001d218162001d02565b82525050565b600060208201905062001d3e600083018462001d16565b92915050565b6000604051905090565b600080fd5b600080fd5b62001d638162001bf8565b811462001d6f57600080fd5b50565b60008135905062001d838162001d58565b92915050565b60006020828403121562001da25762001da162001d4e565b5b600062001db28482850162001d72565b91505092915050565b6000819050919050565b62001dd08162001dbb565b82525050565b600060408201905062001ded600083018562001c0c565b62001dfc602083018462001dc5565b9392505050565b62001e0e8162001dbb565b811462001e1a57600080fd5b50565b60008135905062001e2e8162001e03565b92915050565b60006020828403121562001e4d5762001e4c62001d4e565b5b600062001e5d8482850162001e1d565b91505092915050565b6000819050919050565b600062001e9162001e8b62001e858462001bd8565b62001e66565b62001bd8565b9050919050565b600062001ea58262001e70565b9050919050565b600062001eb98262001e98565b9050919050565b62001ecb8162001eac565b82525050565b600060208201905062001ee8600083018462001ec0565b92915050565b60008115159050919050565b62001f058162001eee565b82525050565b600060208201905062001f22600083018462001efa565b92915050565b600080fd5b600080fd5b7f4e487b7100000000000000000000000000000000000000000000000000000000600052604160045260246000fd5b62001f6c8262001c8c565b810181811067ffffffffffffffff8211171562001f8e5762001f8d62001f32565b5b80604052505050565b600062001fa362001d44565b905062001fb1828262001f61565b919050565b600067ffffffffffffffff82111562001fd45762001fd362001f32565b5b62001fdf8262001c8c565b9050602081019050919050565b82818337600083830152505050565b6000620020126200200c8462001fb6565b62001f97565b90508281526020810184848401111562002031576200203062001f2d565b5b6200203e84828562001fec565b509392505050565b600082601f8301126200205e576200205d62001f28565b5b81356200207084826020860162001ffb565b91505092915050565b620020848162001d02565b81146200209057600080fd5b50565b600081359050620020a48162002079565b92915050565b600080600080600060a08688031215620020c957620020c862001d4e565b5b600086013567ffffffffffffffff811115620020ea57620020e962001d53565b5b620020f88882890162002046565b955050602086013567ffffffffffffffff8111156200211c576200211b62001d53565b5b6200212a8882890162002046565b94505060406200213d8882890162002093565b9350506060620021508882890162001d72565b9250506080620021638882890162001e1d565b9150509295509295909350565b600060208201905062002187600083018462001dc5565b92915050565b60006200219a8262001e98565b9050919050565b620021ac816200218d565b82525050565b6000602082019050620021c96000830184620021a1565b92915050565b620021da8162001bf8565b82525050565b620021eb8162001dbb565b82525050565b604082016000820151620022096000850182620021cf565b5060208201516200221e6020850182620021e0565b50505050565b60006040820190506200223b6000830184620021f1565b92915050565b6200224c8162001eee565b81146200225857600080fd5b50565b6000813590506200226c8162002241565b92915050565b6000602082840312156200228b576200228a62001d4e565b5b60006200229b848285016200225b565b91505092915050565b600081519050919050565b600082825260208201905092915050565b6000819050602082019050919050565b620022db816200218d565b82525050565b6000620022ef8383620022d0565b60208301905092915050565b6000602082019050919050565b60006200231582620022a4565b620023218185620022af565b93506200232e83620022c0565b8060005b8381101562002365578151620023498882620022e1565b97506200235683620022fb565b92505060018101905062002332565b5085935050505092915050565b600060208201905081810360008301526200238e818462002308565b905092915050565b600081519050919050565b600082825260208201905092915050565b6000819050602082019050919050565b604082016000820151620023da6000850182620021cf565b506020820151620023ef6020850182620021e0565b50505050565b6000620024038383620023c2565b60408301905092915050565b6000602082019050919050565b6000620024298262002396565b620024358185620023a1565b93506200244283620023b2565b8060005b83811015620024795781516200245d8882620023f5565b97506200246a836200240f565b92505060018101905062002446565b5085935050505092915050565b60006020820190508181036000830152620024a281846200241c565b905092915050565b6000608082019050620024c1600083018762001dc5565b620024d0602083018662001c0c565b620024df604083018562001dc5565b620024ee606083018462001dc5565b95945050505050565b6080820160008201516200250f6000850182620021e0565b506020820151620025246020850182620021cf565b506040820151620025396040850182620021e0565b5060608201516200254e6060850182620021e0565b50505050565b60006080820190506200256b6000830184620024f7565b92915050565b7f4e487b7100000000000000000000000000000000000000000000000000000000600052602260045260246000fd5b60006002820490506001821680620025b957607f821691505b60208210811415620025d057620025cf62002571565b5b50919050565b7f4e6f742061207374616b65686f6c646572000000000000000000000000000000600082015250565b60006200260e60118362001c45565b91506200261b82620025d6565b602082019050919050565b600060208201905081810360008301526200264181620025ff565b9050919050565b7f4e487b7100000000000000000000000000000000000000000000000000000000600052601160045260246000fd5b6000620026848262001dbb565b9150620026918362001dbb565b9250827fffffffffffffffffffffffffffffffffffffffffffffffffffffffffffffffff03821115620026c957620026c862002648565b5b828201905092915050565b7f4d757374207374616b656420666f7220372064617973206265666f726520756e60008201527f7374616b696e6700000000000000000000000000000000000000000000000000602082015250565b60006200273260278362001c45565b91506200273f82620026d4565b604082019050919050565b60006020820190508181036000830152620027658162002723565b9050919050565b7f496e73756666696369656e74207374616b656420616d6f756e74000000000000600082015250565b6000620027a4601a8362001c45565b9150620027b1826200276c565b602082019050919050565b60006020820190508181036000830152620027d78162002795565b9050919050565b6000620027eb8262001d02565b9150620027f88362001d02565b9250828210156200280e576200280d62002648565b5b828203905092915050565b6000620028268262001dbb565b9150620028338362001dbb565b92508282101562002849576200284862002648565b5b828203905092915050565b7f696e76616c6964207374616b656420616d6f756e740000000000000000000000600082015250565b60006200288c60158362001c45565b9150620028998262002854565b602082019050919050565b60006020820190508181036000830152620028bf816200287d565b9050919050565b7f546f6f206561726c790000000000000000000000000000000000000000000000600082015250565b6000620028fe60098362001c45565b91506200290b82620028c6565b602082019050919050565b600060208201905081810360008301526200293181620028ef565b9050919050565b7f6d7573742062652061207374616b65686f6c6465720000000000000000000000600082015250565b60006200297060158362001c45565b91506200297d8262002938565b602082019050919050565b60006020820190508181036000830152620029a38162002961565b9050919050565b7f73757270617373206c696d6974206e756d626572206f6620747265617375726560008201527f48756e7465727300000000000000000000000000000000000000000000000000602082015250565b600062002a0860278362001c45565b915062002a1582620029aa565b604082019050919050565b6000602082019050818103600083015262002a3b81620029f9565b9050919050565b7f73757270617373206c696d6974206e756d626572206f66207374616b65686f6c60008201527f6465727300000000000000000000000000000000000000000000000000000000602082015250565b600062002aa060248362001c45565b915062002aad8262002a42565b604082019050919050565b6000602082019050818103600083015262002ad38162002a91565b9050919050565b600062002ae78262001d02565b915062002af48362001d02565b92508267ffffffffffffffff0382111562002b145762002b1362002648565b5b828201905092915050565b600060a082019050818103600083015262002b3b818862001c9d565b9050818103602083015262002b51818762001c9d565b905062002b62604083018662001dc5565b62002b71606083018562001c0c565b62002b80608083018462001dc5565b9695505050505050565b6000608082019050818103600083015262002ba6818762001c9d565b905062002bb7602083018662001c0c565b62002bc6604083018562001c0c565b62002bd5606083018462001dc5565b9594505050505056fe60806040523480156200001157600080fd5b5060405162001da038038062001da083398181016040528101906200003791906200053b565b8484846200005a6200004e6200018260201b60201c565b6200018a60201b60201c565b6200006a6200018260201b60201c565b600160006101000a81548173ffffffffffffffffffffffffffffffffffffffff021916908373ffffffffffffffffffffffffffffffffffffffff1602179055508260029080519060200190620000c29291906200024e565b508160039080519060200190620000db9291906200024e565b50806004819055506000600560006101000a81548160ff021916908360018111156200010c576200010b62000601565b5b02179055506000600560016101000a81548160ff02191690831515021790555050505081600960086101000a81548173ffffffffffffffffffffffffffffffffffffffff021916908373ffffffffffffffffffffffffffffffffffffffff16021790555080600a81905550505050505062000695565b600033905090565b60008060009054906101000a900473ffffffffffffffffffffffffffffffffffffffff169050816000806101000a81548173ffffffffffffffffffffffffffffffffffffffff021916908373ffffffffffffffffffffffffffffffffffffffff1602179055508173ffffffffffffffffffffffffffffffffffffffff168173ffffffffffffffffffffffffffffffffffffffff167f8be0079c531659141344cd1fd0a4f28419497f9722a3daafe3b4186f6b6457e060405160405180910390a35050565b8280546200025c906200065f565b90600052602060002090601f016020900481019282620002805760008555620002cc565b82601f106200029b57805160ff1916838001178555620002cc565b82800160010185558215620002cc579182015b82811115620002cb578251825591602001919060010190620002ae565b5b509050620002db9190620002df565b5090565b5b80821115620002fa576000816000905550600101620002e0565b5090565b6000604051905090565b600080fd5b600080fd5b600080fd5b600080fd5b6000601f19601f8301169050919050565b7f4e487b7100000000000000000000000000000000000000000000000000000000600052604160045260246000fd5b62000367826200031c565b810181811067ffffffffffffffff821117156200038957620003886200032d565b5b80604052505050565b60006200039e620002fe565b9050620003ac82826200035c565b919050565b600067ffffffffffffffff821115620003cf57620003ce6200032d565b5b620003da826200031c565b9050602081019050919050565b60005b8381101562000407578082015181840152602081019050620003ea565b8381111562000417576000848401525b50505050565b6000620004346200042e84620003b1565b62000392565b90508281526020810184848401111562000453576200045262000317565b5b62000460848285620003e7565b509392505050565b600082601f83011262000480576200047f62000312565b5b8151620004928482602086016200041d565b91505092915050565b6000819050919050565b620004b0816200049b565b8114620004bc57600080fd5b50565b600081519050620004d081620004a5565b92915050565b600073ffffffffffffffffffffffffffffffffffffffff82169050919050565b60006200050382620004d6565b9050919050565b6200051581620004f6565b81146200052157600080fd5b50565b60008151905062000535816200050a565b92915050565b600080600080600060a086880312156200055a576200055962000308565b5b600086015167ffffffffffffffff8111156200057b576200057a6200030d565b5b620005898882890162000468565b955050602086015167ffffffffffffffff811115620005ad57620005ac6200030d565b5b620005bb8882890162000468565b9450506040620005ce88828901620004bf565b9350506060620005e18882890162000524565b9250506080620005f488828901620004bf565b9150509295509295909350565b7f4e487b7100000000000000000000000000000000000000000000000000000000600052602160045260246000fd5b7f4e487b7100000000000000000000000000000000000000000000000000000000600052602260045260246000fd5b600060028204905060018216806200067857607f821691505b602082108114156200068f576200068e62000630565b5b50919050565b6116fb80620006a56000396000f3fe608060405234801561001057600080fd5b506004361061012c5760003560e01c8063655b737f116100ad57806390cf581c1161007157806390cf581c146102c7578063aa8c217c146102d1578063e2c3b122146102ef578063f2fde38b1461030d578063fcfff16f146103295761012c565b8063655b737f1461023357806366d003ac14610263578063715018a6146102815780637284e4161461028b5780638da5cb5b146102a95761012c565b80633174b689116100f45780633174b689146101c757806341c12a70146101d157806343d726d6146101db5780634a79d50c146101e55780635351a3c8146102035761012c565b806302d05d3f14610131578063036ee8501461014f5780631626fe641461016d578063227326b11461018b57806324033674146101a9575b600080fd5b610139610347565b6040516101469190611071565b60405180910390f35b61015761036d565b60405161016491906110a5565b60405180910390f35b610175610373565b60405161018291906110e3565b60405180910390f35b6101936103df565b6040516101a09190611119565b60405180910390f35b6101b16103f2565b6040516101be91906110e3565b60405180910390f35b6101cf61040c565b005b6101d96106b5565b005b6101e361080f565b005b6101ed610921565b6040516101fa91906111cd565b60405180910390f35b61021d60048036038101906102189190611220565b6109af565b60405161022a9190611119565b60405180910390f35b61024d60048036038101906102489190611220565b6109cf565b60405161025a9190611119565b60405180910390f35b61026b6109ef565b6040516102789190611071565b60405180910390f35b610289610a15565b005b610293610a9d565b6040516102a091906111cd565b60405180910390f35b6102b1610b2b565b6040516102be9190611071565b60405180910390f35b6102cf610b54565b005b6102d9610cae565b6040516102e691906110a5565b60405180910390f35b6102f7610cb4565b60405161030491906110e3565b60405180910390f35b61032760048036038101906103229190611220565b610cce565b005b610331610dc6565b60405161033e91906112c4565b60405180910390f35b600160009054906101000a900473ffffffffffffffffffffffffffffffffffffffff1681565b60045481565b6000600960009054906101000a900467ffffffffffffffff16600760009054906101000a900467ffffffffffffffff166103ad919061130e565b6064600760009054906101000a900467ffffffffffffffff166103d0919061134c565b6103da91906113bd565b905090565b600560019054906101000a900460ff1681565b600760009054906101000a900467ffffffffffffffff1681565b610414610dd9565b610453576040517f08c379a000000000000000000000000000000000000000000000000000000000815260040161044a9061143a565b60405180910390fd5b6001151560066000610463610e9d565b73ffffffffffffffffffffffffffffffffffffffff1673ffffffffffffffffffffffffffffffffffffffff16815260200190815260200160002060009054906101000a900460ff161515141561055657600660006104bf610e9d565b73ffffffffffffffffffffffffffffffffffffffff1673ffffffffffffffffffffffffffffffffffffffff16815260200190815260200160002060006101000a81549060ff02191690556001600760008282829054906101000a900467ffffffffffffffff1661052f919061145a565b92506101000a81548167ffffffffffffffff021916908367ffffffffffffffff1602179055505b6001151560086000610566610e9d565b73ffffffffffffffffffffffffffffffffffffffff1673ffffffffffffffffffffffffffffffffffffffff16815260200190815260200160002060009054906101000a900460ff161515141561065957600860006105c2610e9d565b73ffffffffffffffffffffffffffffffffffffffff1673ffffffffffffffffffffffffffffffffffffffff16815260200190815260200160002060006101000a81549060ff02191690556001600960008282829054906101000a900467ffffffffffffffff16610632919061145a565b92506101000a81548167ffffffffffffffff021916908367ffffffffffffffff1602179055505b3373ffffffffffffffffffffffffffffffffffffffff163073ffffffffffffffffffffffffffffffffffffffff167f2817372c62bc3cdb73b84b6412d5ce40c6e73c30ef5fac6558d0c4cb3da410b760405160405180910390a3565b6106bd610ea5565b6106fc576040517f08c379a00000000000000000000000000000000000000000000000000000000081526004016106f3906114da565b60405180910390fd5b60016008600061070a610e9d565b73ffffffffffffffffffffffffffffffffffffffff1673ffffffffffffffffffffffffffffffffffffffff16815260200190815260200160002060006101000a81548160ff0219169083151502179055506001600960008282829054906101000a900467ffffffffffffffff16610781919061130e565b92506101000a81548167ffffffffffffffff021916908367ffffffffffffffff1602179055503373ffffffffffffffffffffffffffffffffffffffff163073ffffffffffffffffffffffffffffffffffffffff167fbbcca6f8778ffd7765644921c17ed2de4add7a9b4ca1a29614a6295edd4a208960016040516108059190611119565b60405180910390a3565b610817610e9d565b73ffffffffffffffffffffffffffffffffffffffff16600160009054906101000a900473ffffffffffffffffffffffffffffffffffffffff1673ffffffffffffffffffffffffffffffffffffffff16146108a6576040517f08c379a000000000000000000000000000000000000000000000000000000000815260040161089d90611546565b60405180910390fd5b6001600560006101000a81548160ff021916908360018111156108cc576108cb61124d565b5b02179055503073ffffffffffffffffffffffffffffffffffffffff167f6944894ba716aadf69fcd57834d5d2cc2e808f6a144c75d956068efa727e2a7e4260405161091791906110a5565b60405180910390a2565b6003805461092e90611595565b80601f016020809104026020016040519081016040528092919081815260200182805461095a90611595565b80156109a75780601f1061097c576101008083540402835291602001916109a7565b820191906000526020600020905b81548152906001019060200180831161098a57829003601f168201915b505050505081565b60086020528060005260406000206000915054906101000a900460ff1681565b60066020528060005260406000206000915054906101000a900460ff1681565b600960089054906101000a900473ffffffffffffffffffffffffffffffffffffffff1681565b610a1d610e9d565b73ffffffffffffffffffffffffffffffffffffffff16610a3b610b2b565b73ffffffffffffffffffffffffffffffffffffffff1614610a91576040517f08c379a0000000000000000000000000000000000000000000000000000000008152600401610a8890611613565b60405180910390fd5b610a9b6000610f6c565b565b60028054610aaa90611595565b80601f0160208091040260200160405190810160405280929190818152602001828054610ad690611595565b8015610b235780601f10610af857610100808354040283529160200191610b23565b820191906000526020600020905b815481529060010190602001808311610b0657829003601f168201915b505050505081565b60008060009054906101000a900473ffffffffffffffffffffffffffffffffffffffff16905090565b610b5c610ea5565b610b9b576040517f08c379a0000000000000000000000000000000000000000000000000000000008152600401610b92906114da565b60405180910390fd5b600160066000610ba9610e9d565b73ffffffffffffffffffffffffffffffffffffffff1673ffffffffffffffffffffffffffffffffffffffff16815260200190815260200160002060006101000a81548160ff0219169083151502179055506001600760008282829054906101000a900467ffffffffffffffff16610c20919061130e565b92506101000a81548167ffffffffffffffff021916908367ffffffffffffffff1602179055503373ffffffffffffffffffffffffffffffffffffffff163073ffffffffffffffffffffffffffffffffffffffff167fbbcca6f8778ffd7765644921c17ed2de4add7a9b4ca1a29614a6295edd4a20896001604051610ca49190611119565b60405180910390a3565b600a5481565b600960009054906101000a900467ffffffffffffffff1681565b610cd6610e9d565b73ffffffffffffffffffffffffffffffffffffffff16610cf4610b2b565b73ffffffffffffffffffffffffffffffffffffffff1614610d4a576040517f08c379a0000000000000000000000000000000000000000000000000000000008152600401610d4190611613565b60405180910390fd5b600073ffffffffffffffffffffffffffffffffffffffff168173ffffffffffffffffffffffffffffffffffffffff161415610dba576040517f08c379a0000000000000000000000000000000000000000000000000000000008152600401610db1906116a5565b60405180910390fd5b610dc381610f6c565b50565b600560009054906101000a900460ff1681565b60006001151560066000610deb610e9d565b73ffffffffffffffffffffffffffffffffffffffff1673ffffffffffffffffffffffffffffffffffffffff16815260200190815260200160002060009054906101000a900460ff1615151480610e9857506001151560086000610e4c610e9d565b73ffffffffffffffffffffffffffffffffffffffff1673ffffffffffffffffffffffffffffffffffffffff16815260200190815260200160002060009054906101000a900460ff161515145b905090565b600033905090565b60006001151560066000610eb7610e9d565b73ffffffffffffffffffffffffffffffffffffffff1673ffffffffffffffffffffffffffffffffffffffff16815260200190815260200160002060009054906101000a900460ff16151514158015610f6757506001151560086000610f1a610e9d565b73ffffffffffffffffffffffffffffffffffffffff1673ffffffffffffffffffffffffffffffffffffffff16815260200190815260200160002060009054906101000a900460ff16151514155b905090565b60008060009054906101000a900473ffffffffffffffffffffffffffffffffffffffff169050816000806101000a81548173ffffffffffffffffffffffffffffffffffffffff021916908373ffffffffffffffffffffffffffffffffffffffff1602179055508173ffffffffffffffffffffffffffffffffffffffff168173ffffffffffffffffffffffffffffffffffffffff167f8be0079c531659141344cd1fd0a4f28419497f9722a3daafe3b4186f6b6457e060405160405180910390a35050565b600073ffffffffffffffffffffffffffffffffffffffff82169050919050565b600061105b82611030565b9050919050565b61106b81611050565b82525050565b60006020820190506110866000830184611062565b92915050565b6000819050919050565b61109f8161108c565b82525050565b60006020820190506110ba6000830184611096565b92915050565b600067ffffffffffffffff82169050919050565b6110dd816110c0565b82525050565b60006020820190506110f860008301846110d4565b92915050565b60008115159050919050565b611113816110fe565b82525050565b600060208201905061112e600083018461110a565b92915050565b600081519050919050565b600082825260208201905092915050565b60005b8381101561116e578082015181840152602081019050611153565b8381111561117d576000848401525b50505050565b6000601f19601f8301169050919050565b600061119f82611134565b6111a9818561113f565b93506111b9818560208601611150565b6111c281611183565b840191505092915050565b600060208201905081810360008301526111e78184611194565b905092915050565b600080fd5b6111fd81611050565b811461120857600080fd5b50565b60008135905061121a816111f4565b92915050565b600060208284031215611236576112356111ef565b5b60006112448482850161120b565b91505092915050565b7f4e487b7100000000000000000000000000000000000000000000000000000000600052602160045260246000fd5b6002811061128d5761128c61124d565b5b50565b600081905061129e8261127c565b919050565b60006112ae82611290565b9050919050565b6112be816112a3565b82525050565b60006020820190506112d960008301846112b5565b92915050565b7f4e487b7100000000000000000000000000000000000000000000000000000000600052601160045260246000fd5b6000611319826110c0565b9150611324836110c0565b92508267ffffffffffffffff03821115611341576113406112df565b5b828201905092915050565b6000611357826110c0565b9150611362836110c0565b92508167ffffffffffffffff0483118215151615611383576113826112df565b5b828202905092915050565b7f4e487b7100000000000000000000000000000000000000000000000000000000600052601260045260246000fd5b60006113c8826110c0565b91506113d3836110c0565b9250826113e3576113e261138e565b5b828204905092915050565b7f746865206164647265737320646964206e6f7420766f74652079657400000000600082015250565b6000611424601c8361113f565b915061142f826113ee565b602082019050919050565b6000602082019050818103600083015261145381611417565b9050919050565b6000611465826110c0565b9150611470836110c0565b925082821015611483576114826112df565b5b828203905092915050565b7f74686520616464726573732068617320766f74656420616c7265616479000000600082015250565b60006114c4601d8361113f565b91506114cf8261148e565b602082019050919050565b600060208201905081810360008301526114f3816114b7565b9050919050565b7f6e6f7420616e206f776e65720000000000000000000000000000000000000000600082015250565b6000611530600c8361113f565b915061153b826114fa565b602082019050919050565b6000602082019050818103600083015261155f81611523565b9050919050565b7f4e487b7100000000000000000000000000000000000000000000000000000000600052602260045260246000fd5b600060028204905060018216806115ad57607f821691505b602082108114156115c1576115c0611566565b5b50919050565b7f4f776e61626c653a2063616c6c6572206973206e6f7420746865206f776e6572600082015250565b60006115fd60208361113f565b9150611608826115c7565b602082019050919050565b6000602082019050818103600083015261162c816115f0565b9050919050565b7f4f776e61626c653a206e6577206f776e657220697320746865207a65726f206160008201527f6464726573730000000000000000000000000000000000000000000000000000602082015250565b600061168f60268361113f565b915061169a82611633565b604082019050919050565b600060208201905081810360008301526116be81611682565b905091905056fea2646970667358221220208f9b5774bd2d816da35f5d4918c40fd462679911f3e455a22ff384a023f82c64736f6c63430008090033a26469706673582212201c7c88479bb23a4ec5cf1f93494ca11b46bd8690a95a7ebaa70abe383d98b7e764736f6c63430008090033",
  "immutableReferences": {},
  "source": "// SPDX-License-Identifier: MIT\npragma solidity >=0.8.0;\n\nimport \"./ITreasureBay.sol\";\nimport \"./TreasurePool.sol\";\nimport \"./proposal/ExchangeProposal.sol\";\nimport \"./proposal/TransferProposal.sol\";\nimport \"./proposal/TreasureExchangeChest.sol\";\nimport \"./proposal/TreasureTransferChest.sol\";\nimport \"@openzeppelin/contracts/token/ERC20/IERC20.sol\";\nimport \"@openzeppelin/contracts/token/ERC20/ERC20.sol\";\n\ncontract TreasureBay is\n  ITreasureBay,\n  TreasurePool,\n  TreasureTransferChest,\n  TreasureExchangeChest\n{\n  struct TreasureHunter {\n    address contractAddress;\n    uint256 joinedAt;\n  }\n  string private _name;\n  address private _creator;\n  uint64 private _limitNumberOfTreasureHunters;\n  TreasureHunter[] private _listOfTreasureHunters;\n  mapping(address => TreasureHunter) public treasureHunters;\n  bool private _isActivated = false; // If there are more than 3 members, activated\n  mapping(address => bool) public allowedRecipients;\n\n  event NewTreasureHunter(address treasureHunter, uint256 timestamp);\n\n  modifier onlyStakeholder() {\n    require(stakeholders[msg.sender].balance > 0, \"must be a stakeholder\");\n    _;\n  }\n\n  modifier onlyTreasureHunter() {\n    require(\n      treasureHunters[msg.sender].contractAddress != address(0x0),\n      \"must be a treasureHunter\"\n    );\n    _;\n  }\n\n  constructor(\n    string memory name_,\n    uint64 limitNumberOfStakeholders_,\n    uint64 limitNumberOfTreasureHunters_\n  ) payable ITreasureBay() {\n    limitNumberOfStakeholders = limitNumberOfStakeholders_;\n    _limitNumberOfTreasureHunters = limitNumberOfTreasureHunters_;\n    _name = name_;\n    _creator = _msgSender();\n  }\n\n  function name() public view virtual returns (string memory) {\n    return _name;\n  }\n\n  function creator() public view virtual returns (address) {\n    return _creator;\n  }\n\n  function limitNumberOfTreasureHunters() public view virtual returns (uint64) {\n    return _limitNumberOfTreasureHunters;\n  }\n\n  function listOfTreasureHunters()\n    public\n    view\n    virtual\n    returns (TreasureHunter[] memory)\n  {\n    return _listOfTreasureHunters;\n  }\n\n  function createTreasureHunter() public returns (TreasureHunter memory) {\n    require(\n      _listOfTreasureHunters.length <= _limitNumberOfTreasureHunters,\n      \"surpass limit number of treasureHunters\"\n    );\n    treasureHunters[_msgSender()] = TreasureHunter(\n      _msgSender(),\n      block.timestamp\n    );\n    _listOfTreasureHunters.push(treasureHunters[_msgSender()]);\n    if (_listOfTreasureHunters.length > 5) {\n      toggleIsActivated(true);\n    }\n    emit NewTreasureHunter(\n      treasureHunters[_msgSender()].contractAddress,\n      block.timestamp\n    );\n    return treasureHunters[_msgSender()];\n  }\n\n  function toggleIsActivated(bool isActivated_) public returns (bool _success) {\n    _isActivated = isActivated_;\n    return true;\n  }\n\n  function createNewTransferProposal(\n    string memory _title,\n    string memory _description,\n    uint64 _debatingPeriod,\n    address _recipient,\n    uint256 _amount\n  ) public onlyStakeholder returns (uint256) {\n    return\n      _newTransferProposal(\n        _title,\n        _description,\n        _debatingPeriod,\n        _recipient,\n        _amount\n      );\n  }\n\n  // function executeProposal(uint256 _proposalID, bytes memory _transactionData)\n  //   external\n  //   override\n  //   returns (bool _success)\n  // {}\n\n  // function changeAllowedRecipients(address _recipient, bool _allowed)\n  //   external\n  //   override\n  //   returns (bool _success)\n  // {}\n}\n",
  "sourcePath": "/Users/chungquantin/Desktop/Projects/DecentralizedOpenSource/smart-bay/contracts/features/dao/TreasureBay.sol",
  "compiler": {
    "name": "solc",
    "version": "0.8.9+commit.e5eed63a.Emscripten.clang"
  },
  "schemaVersion": "3.4.3",
  "updatedAt": "2021-11-13T03:28:22.895Z",
  "devdoc": {
    "kind": "dev",
    "methods": {},
    "version": 1
  },
  "userdoc": {
    "kind": "user",
    "methods": {},
    "version": 1
  }
}