{
  "contractName": "TreasureBayFactory",
  "abi": [
    {
      "anonymous": false,
      "inputs": [
        {
          "indexed": true,
          "internalType": "string",
          "name": "name",
          "type": "string"
        },
        {
          "indexed": true,
          "internalType": "address",
          "name": "creator",
          "type": "address"
        },
        {
          "indexed": true,
          "internalType": "address",
          "name": "bayAddress",
          "type": "address"
        }
      ],
      "name": "NewBayCreated",
      "type": "event"
    },
    {
      "inputs": [
        {
          "internalType": "string",
          "name": "name_",
          "type": "string"
        },
        {
          "internalType": "uint64",
          "name": "limitNumberOfMembers_",
          "type": "uint64"
        },
        {
          "internalType": "uint64",
          "name": "limitNumberOfTreasureHunters_",
          "type": "uint64"
        }
      ],
      "name": "createNewBay",
      "outputs": [
        {
          "internalType": "bool",
          "name": "",
          "type": "bool"
        }
      ],
      "stateMutability": "nonpayable",
      "type": "function"
    },
    {
      "inputs": [],
      "name": "getAllBays",
      "outputs": [
        {
          "internalType": "contract ITreasureBay[]",
          "name": "",
          "type": "address[]"
        }
      ],
      "stateMutability": "view",
      "type": "function"
    },
    {
      "inputs": [
        {
          "internalType": "address",
          "name": "bayAddress",
          "type": "address"
        }
      ],
      "name": "getBay",
      "outputs": [
        {
          "internalType": "contract ITreasureBay",
          "name": "",
          "type": "address"
        }
      ],
      "stateMutability": "view",
      "type": "function"
    }
  ],
  "bytecode": "0x608060405234801561001057600080fd5b50614aa1806100206000396000f3fe60806040523480156200001157600080fd5b5060043610620000465760003560e01c80630579e25b146200004b57806349c2644014620000815780639a41e3ef14620000a3575b600080fd5b6200006960048036038101906200006391906200054d565b620000d9565b604051620000789190620005e5565b60405180910390f35b6200008b62000283565b6040516200009a91906200074a565b60405180910390f35b620000c16004803603810190620000bb9190620007b3565b62000313565b604051620000d09190620007f6565b60405180910390f35b600080848484604051620000ed9062000384565b620000fb93929190620008b7565b604051809103906000f08015801562000118573d6000803e3d6000fd5b5090506000819080600181540180825580915050600190039060005260206000200160009091909190916101000a81548173ffffffffffffffffffffffffffffffffffffffff021916908373ffffffffffffffffffffffffffffffffffffffff16021790555080600160008373ffffffffffffffffffffffffffffffffffffffff1673ffffffffffffffffffffffffffffffffffffffff16815260200190815260200160002060006101000a81548173ffffffffffffffffffffffffffffffffffffffff021916908373ffffffffffffffffffffffffffffffffffffffff1602179055508073ffffffffffffffffffffffffffffffffffffffff166200021d6200037c565b73ffffffffffffffffffffffffffffffffffffffff16866040516200024391906200093d565b60405180910390207f31e76f752b66dd3322b05ee2c750c9cdd43aa32797450f4e05f8f0f6a62eb28e60405160405180910390a460019150509392505050565b606060008054806020026020016040519081016040528092919081815260200182805480156200030957602002820191906000526020600020905b8160009054906101000a900473ffffffffffffffffffffffffffffffffffffffff1673ffffffffffffffffffffffffffffffffffffffff1681526020019060010190808311620002be575b5050505050905090565b6000600160008373ffffffffffffffffffffffffffffffffffffffff1673ffffffffffffffffffffffffffffffffffffffff16815260200190815260200160002060009054906101000a900473ffffffffffffffffffffffffffffffffffffffff169050919050565b600033905090565b614115806200095783390190565b6000604051905090565b600080fd5b600080fd5b600080fd5b600080fd5b6000601f19601f8301169050919050565b7f4e487b7100000000000000000000000000000000000000000000000000000000600052604160045260246000fd5b620003fb82620003b0565b810181811067ffffffffffffffff821117156200041d576200041c620003c1565b5b80604052505050565b60006200043262000392565b9050620004408282620003f0565b919050565b600067ffffffffffffffff821115620004635762000462620003c1565b5b6200046e82620003b0565b9050602081019050919050565b82818337600083830152505050565b6000620004a16200049b8462000445565b62000426565b905082815260208101848484011115620004c057620004bf620003ab565b5b620004cd8482856200047b565b509392505050565b600082601f830112620004ed57620004ec620003a6565b5b8135620004ff8482602086016200048a565b91505092915050565b600067ffffffffffffffff82169050919050565b620005278162000508565b81146200053357600080fd5b50565b60008135905062000547816200051c565b92915050565b6000806000606084860312156200056957620005686200039c565b5b600084013567ffffffffffffffff8111156200058a5762000589620003a1565b5b6200059886828701620004d5565b9350506020620005ab8682870162000536565b9250506040620005be8682870162000536565b9150509250925092565b60008115159050919050565b620005df81620005c8565b82525050565b6000602082019050620005fc6000830184620005d4565b92915050565b600081519050919050565b600082825260208201905092915050565b6000819050602082019050919050565b600073ffffffffffffffffffffffffffffffffffffffff82169050919050565b6000819050919050565b600062000679620006736200066d846200062e565b6200064e565b6200062e565b9050919050565b60006200068d8262000658565b9050919050565b6000620006a18262000680565b9050919050565b620006b38162000694565b82525050565b6000620006c78383620006a8565b60208301905092915050565b6000602082019050919050565b6000620006ed8262000602565b620006f981856200060d565b935062000706836200061e565b8060005b838110156200073d578151620007218882620006b9565b97506200072e83620006d3565b9250506001810190506200070a565b5085935050505092915050565b60006020820190508181036000830152620007668184620006e0565b905092915050565b60006200077b826200062e565b9050919050565b6200078d816200076e565b81146200079957600080fd5b50565b600081359050620007ad8162000782565b92915050565b600060208284031215620007cc57620007cb6200039c565b5b6000620007dc848285016200079c565b91505092915050565b620007f08162000694565b82525050565b60006020820190506200080d6000830184620007e5565b92915050565b600081519050919050565b600082825260208201905092915050565b60005b838110156200084f57808201518184015260208101905062000832565b838111156200085f576000848401525b50505050565b6000620008728262000813565b6200087e81856200081e565b9350620008908185602086016200082f565b6200089b81620003b0565b840191505092915050565b620008b18162000508565b82525050565b60006060820190508181036000830152620008d3818662000865565b9050620008e46020830185620008a6565b620008f36040830184620008a6565b949350505050565b600081905092915050565b6000620009138262000813565b6200091f8185620008fb565b9350620009318185602086016200082f565b80840191505092915050565b60006200094b828462000906565b91508190509291505056fe608060405262093a80600460106101000a81548167ffffffffffffffff021916908367ffffffffffffffff1602179055506203f480600460186101000a81548167ffffffffffffffff021916908367ffffffffffffffff1602179055506000600d60006101000a81548160ff021916908315150217905550604051620041153803806200411583398181016040528101906200009c91906200044a565b620000ac620001b060201b60201c565b600160086101000a81548173ffffffffffffffffffffffffffffffffffffffff021916908373ffffffffffffffffffffffffffffffffffffffff16021790555081600460006101000a81548167ffffffffffffffff021916908367ffffffffffffffff16021790555080600b60006101000a81548167ffffffffffffffff021916908367ffffffffffffffff160217905550826009908051906020019062000156929190620001b8565b5062000167620001b060201b60201c565b600a60006101000a81548173ffffffffffffffffffffffffffffffffffffffff021916908373ffffffffffffffffffffffffffffffffffffffff1602179055505050506200052a565b600033905090565b828054620001c690620004f4565b90600052602060002090601f016020900481019282620001ea576000855562000236565b82601f106200020557805160ff191683800117855562000236565b8280016001018555821562000236579182015b828111156200023557825182559160200191906001019062000218565b5b50905062000245919062000249565b5090565b5b80821115620002645760008160009055506001016200024a565b5090565b6000604051905090565b600080fd5b600080fd5b600080fd5b600080fd5b6000601f19601f8301169050919050565b7f4e487b7100000000000000000000000000000000000000000000000000000000600052604160045260246000fd5b620002d18262000286565b810181811067ffffffffffffffff82111715620002f357620002f262000297565b5b80604052505050565b60006200030862000268565b9050620003168282620002c6565b919050565b600067ffffffffffffffff82111562000339576200033862000297565b5b620003448262000286565b9050602081019050919050565b60005b838110156200037157808201518184015260208101905062000354565b8381111562000381576000848401525b50505050565b60006200039e62000398846200031b565b620002fc565b905082815260208101848484011115620003bd57620003bc62000281565b5b620003ca84828562000351565b509392505050565b600082601f830112620003ea57620003e96200027c565b5b8151620003fc84826020860162000387565b91505092915050565b600067ffffffffffffffff82169050919050565b620004248162000405565b81146200043057600080fd5b50565b600081519050620004448162000419565b92915050565b60008060006060848603121562000466576200046562000272565b5b600084015167ffffffffffffffff81111562000487576200048662000277565b5b6200049586828701620003d2565b9350506020620004a88682870162000433565b9250506040620004bb8682870162000433565b9150509250925092565b7f4e487b7100000000000000000000000000000000000000000000000000000000600052602260045260246000fd5b600060028204905060018216806200050d57607f821691505b60208210811415620005245762000523620004c5565b5b50919050565b613bdb806200053a6000396000f3fe608060405260043610620001a65760003560e01c806352d4aedc11620000e5578063c07cfca91162000097578063e74e95b4116200006d578063e74e95b414620005d8578063f1610a281462000608578063f851a440146200064c578063f8d41b96146200067c57620001a6565b8063c07cfca91462000532578063cceb68f51462000578578063cd555bf114620005a857620001a6565b806352d4aedc1462000400578063567e98f9146200042e57806362c48ae7146200045e578063665e3d83146200048e57806384780fd214620004d2578063b898e601146200050257620001a6565b80632b0c54f5116200015d5780633a4b66f111620001335780633a4b66f114620003605780633b5b4f2c146200036c5780634df6d6cc14620003b05780634e71d92d14620003f457620001a6565b80632b0c54f514620002e05780632def66201462000310578063394ebf3a146200031c57620001a6565b806302d05d3f14620001ab57806306fdde0314620001db5780631e3ab983146200020b5780632131c68c146200023b578063246d59af146200026b57806328cd149414620002b0575b600080fd5b348015620001b857600080fd5b50620001c3620006ac565b604051620001d2919062001b9f565b60405180910390f35b348015620001e857600080fd5b50620001f3620006d6565b60405162000202919062001c60565b60405180910390f35b3480156200021857600080fd5b506200022362000770565b60405162000232919062001ca9565b60405180910390f35b3480156200024857600080fd5b50620002536200078a565b60405162000262919062001b9f565b60405180910390f35b3480156200027857600080fd5b5062000297600480360381019062000291919062001d0b565b620007b0565b604051620002a792919062001d58565b60405180910390f35b348015620002bd57600080fd5b50620002c8620007f4565b604051620002d7919062001ca9565b60405180910390f35b348015620002ed57600080fd5b50620002f86200080e565b60405162000307919062001ca9565b60405180910390f35b6200031a62000828565b005b3480156200032957600080fd5b5062000348600480360381019062000342919062001db6565b62000c27565b60405162000357919062001e53565b60405180910390f35b6200036a62000c67565b005b3480156200037957600080fd5b5062000398600480360381019062000392919062001db6565b62000e36565b604051620003a7919062001e95565b60405180910390f35b348015620003bd57600080fd5b50620003dc6004803603810190620003d6919062001d0b565b62000e76565b604051620003eb919062001ecf565b60405180910390f35b620003fe62000e96565b005b3480156200040d57600080fd5b506200042c60048036038101906200042691906200206e565b62001009565b005b3480156200043b57600080fd5b5062000446620010b1565b60405162000455919062002134565b60405180910390f35b3480156200046b57600080fd5b5062000476620010b7565b604051620004859190620021a6565b60405180910390f35b3480156200049b57600080fd5b50620004ba6004803603810190620004b49190620021f4565b620013fb565b604051620004c9919062001ecf565b60405180910390f35b348015620004df57600080fd5b50620004ea62001420565b604051620004f9919062001ca9565b60405180910390f35b3480156200050f57600080fd5b506200051a6200143a565b60405162000529919062001ca9565b60405180910390f35b3480156200053f57600080fd5b506200055e600480360381019062000558919062001d0b565b62001454565b6040516200056f9392919062002226565b60405180910390f35b3480156200058557600080fd5b50620005906200149e565b6040516200059f919062002331565b60405180910390f35b348015620005b557600080fd5b50620005c06200152e565b604051620005cf919062001ca9565b60405180910390f35b348015620005e557600080fd5b50620005f06200154c565b604051620005ff919062001ca9565b60405180910390f35b3480156200061557600080fd5b506200063460048036038101906200062e919062002355565b62001566565b60405162000643919062001e53565b60405180910390f35b3480156200065957600080fd5b5062000664620015b7565b60405162000673919062001b9f565b60405180910390f35b3480156200068957600080fd5b5062000694620015dd565b604051620006a39190620023cf565b60405180910390f35b6000600a60009054906101000a900473ffffffffffffffffffffffffffffffffffffffff16905090565b606060098054620006e7906200241b565b80601f016020809104026020016040519081016040528092919081815260200182805462000715906200241b565b8015620007665780601f106200073a5761010080835404028352916020019162000766565b820191906000526020600020905b8154815290600101906020018083116200074857829003601f168201915b5050505050905090565b600160009054906101000a900467ffffffffffffffff1681565b600260009054906101000a900473ffffffffffffffffffffffffffffffffffffffff1681565b600c6020528060005260406000206000915090508060000160009054906101000a900473ffffffffffffffffffffffffffffffffffffffff16908060010154905082565b600460009054906101000a900467ffffffffffffffff1681565b600a60149054906101000a900467ffffffffffffffff1681565b6000806000620008376200191e565b73ffffffffffffffffffffffffffffffffffffffff1673ffffffffffffffffffffffffffffffffffffffff1681526020019081526020016000206000015411620008b8576040517f08c379a0000000000000000000000000000000000000000000000000000000008152600401620008af90620024a1565b60405180910390fd5b600460109054906101000a900467ffffffffffffffff1667ffffffffffffffff1642116200091d576040517f08c379a0000000000000000000000000000000000000000000000000000000008152600401620009149062002539565b60405180910390fd5b6000806200092a6200191e565b73ffffffffffffffffffffffffffffffffffffffff1673ffffffffffffffffffffffffffffffffffffffff16815260200190815260200160002060000154341115620009ad576040517f08c379a0000000000000000000000000000000000000000000000000000000008152600401620009a490620025ab565b60405180910390fd5b620009b76200191e565b73ffffffffffffffffffffffffffffffffffffffff166108fc349081150290604051600060405180830381858888f19350505050158015620009fd573d6000803e3d6000fd5b503460008062000a0c6200191e565b73ffffffffffffffffffffffffffffffffffffffff1673ffffffffffffffffffffffffffffffffffffffff168152602001908152602001600020600001600082825462000a5a9190620025fc565b92505081905550600080600062000a706200191e565b73ffffffffffffffffffffffffffffffffffffffff1673ffffffffffffffffffffffffffffffffffffffff16815260200190815260200160002060000154141562000bc65760008062000ac26200191e565b73ffffffffffffffffffffffffffffffffffffffff1673ffffffffffffffffffffffffffffffffffffffff1681526020019081526020016000206000808201600090556001820160006101000a81549073ffffffffffffffffffffffffffffffffffffffff02191690556002820160009055505060018060008282829054906101000a900467ffffffffffffffff1662000b5d919062002637565b92506101000a81548167ffffffffffffffff021916908367ffffffffffffffff1602179055507f6f1eb9379ef97a9fc8efe5b92a387d1291f5c65d0929df551aea69371e05403c62000bae6200191e565b60405162000bbd919062001b9f565b60405180910390a15b346003600082825462000bda9190620025fc565b925050819055507f85082129d87b2fe11527cb1b3b7a520aeb5aa6913f88a3d8757fe40d1db02fdd62000c0c6200191e565b3460405162000c1d92919062001d58565b60405180910390a1565b6006818154811062000c3857600080fd5b906000526020600020016000915054906101000a900473ffffffffffffffffffffffffffffffffffffffff1681565b6000341162000cad576040517f08c379a000000000000000000000000000000000000000000000000000000000815260040162000ca490620026c2565b60405180910390fd5b600560009054906101000a900467ffffffffffffffff1667ffffffffffffffff16341162000d12576040517f08c379a000000000000000000000000000000000000000000000000000000000815260040162000d0990620026c2565b60405180910390fd5b600080600062000d216200191e565b73ffffffffffffffffffffffffffffffffffffffff1673ffffffffffffffffffffffffffffffffffffffff16815260200190815260200160002060000154141562000d725762000d70620015dd565b505b3460008062000d806200191e565b73ffffffffffffffffffffffffffffffffffffffff1673ffffffffffffffffffffffffffffffffffffffff168152602001908152602001600020600001600082825462000dce9190620026e4565b92505081905550346003600082825462000de99190620026e4565b925050819055507febedb8b3c678666e7f36970bc8f57abf6d8fa2e828c0da91ea5b75bf68ed101a62000e1b6200191e565b3460405162000e2c92919062001d58565b60405180910390a1565b6008818154811062000e4757600080fd5b906000526020600020016000915054906101000a900473ffffffffffffffffffffffffffffffffffffffff1681565b600e6020528060005260406000206000915054906101000a900460ff1681565b600080600062000ea56200191e565b73ffffffffffffffffffffffffffffffffffffffff1673ffffffffffffffffffffffffffffffffffffffff168152602001908152602001600020600001541162000f26576040517f08c379a000000000000000000000000000000000000000000000000000000000815260040162000f1d90620024a1565b60405180910390fd5b60008062000f336200191e565b73ffffffffffffffffffffffffffffffffffffffff1673ffffffffffffffffffffffffffffffffffffffff16815260200190815260200160002060020154421162000fb5576040517f08c379a000000000000000000000000000000000000000000000000000000000815260040162000fac9062002791565b60405180910390fd5b6203f48060008062000fc66200191e565b73ffffffffffffffffffffffffffffffffffffffff1673ffffffffffffffffffffffffffffffffffffffff16815260200190815260200160002060020181905550565b60008060003373ffffffffffffffffffffffffffffffffffffffff1673ffffffffffffffffffffffffffffffffffffffff168152602001908152602001600020600001541162001090576040517f08c379a0000000000000000000000000000000000000000000000000000000008152600401620010879062002803565b60405180910390fd5b620010a985858567ffffffffffffffff16858562001926565b505050505050565b60035481565b620010c162001ae5565b600b60009054906101000a900467ffffffffffffffff1667ffffffffffffffff16600a60149054906101000a900467ffffffffffffffff1667ffffffffffffffff16111562001147576040517f08c379a00000000000000000000000000000000000000000000000000000000081526004016200113e906200289b565b60405180910390fd5b6001600a60148282829054906101000a900467ffffffffffffffff166200116f9190620028bd565b92506101000a81548167ffffffffffffffff021916908367ffffffffffffffff1602179055506005600a60149054906101000a900467ffffffffffffffff1667ffffffffffffffff161115620011cd57620011cb6001620013fb565b505b6040518060400160405280620011e26200191e565b73ffffffffffffffffffffffffffffffffffffffff16815260200142815250600c60006200120f6200191e565b73ffffffffffffffffffffffffffffffffffffffff1673ffffffffffffffffffffffffffffffffffffffff16815260200190815260200160002060008201518160000160006101000a81548173ffffffffffffffffffffffffffffffffffffffff021916908373ffffffffffffffffffffffffffffffffffffffff160217905550602082015181600101559050507fef7dd88fd6e07a1960a539671612f14f6e19471ee795cade675fb83c94267415600c6000620012cc6200191e565b73ffffffffffffffffffffffffffffffffffffffff1673ffffffffffffffffffffffffffffffffffffffff16815260200190815260200160002060000160009054906101000a900473ffffffffffffffffffffffffffffffffffffffff16426040516200133b92919062001d58565b60405180910390a1600c6000620013516200191e565b73ffffffffffffffffffffffffffffffffffffffff1673ffffffffffffffffffffffffffffffffffffffff1681526020019081526020016000206040518060400160405290816000820160009054906101000a900473ffffffffffffffffffffffffffffffffffffffff1673ffffffffffffffffffffffffffffffffffffffff1673ffffffffffffffffffffffffffffffffffffffff168152602001600182015481525050905090565b600081600d60006101000a81548160ff02191690831515021790555060019050919050565b600460089054906101000a900467ffffffffffffffff1681565b600560009054906101000a900467ffffffffffffffff1681565b60006020528060005260406000206000915090508060000154908060010160009054906101000a900473ffffffffffffffffffffffffffffffffffffffff16908060020154905083565b606060068054806020026020016040519081016040528092919081815260200182805480156200152457602002820191906000526020600020905b8160009054906101000a900473ffffffffffffffffffffffffffffffffffffffff1673ffffffffffffffffffffffffffffffffffffffff1681526020019060010190808311620014d9575b5050505050905090565b6000600b60009054906101000a900467ffffffffffffffff16905090565b600560089054906101000a900467ffffffffffffffff1681565b6000600760008367ffffffffffffffff1667ffffffffffffffff16815260200190815260200160002060009054906101000a900473ffffffffffffffffffffffffffffffffffffffff169050919050565b600160089054906101000a900473ffffffffffffffffffffffffffffffffffffffff1681565b620015e762001b15565b600460009054906101000a900467ffffffffffffffff1667ffffffffffffffff16600160009054906101000a900467ffffffffffffffff1667ffffffffffffffff1611156200166d576040517f08c379a0000000000000000000000000000000000000000000000000000000008152600401620016649062002978565b60405180910390fd5b604051806060016040528060008152602001620016896200191e565b73ffffffffffffffffffffffffffffffffffffffff168152602001600460189054906101000a900467ffffffffffffffff1667ffffffffffffffff16815250600080620016d56200191e565b73ffffffffffffffffffffffffffffffffffffffff1673ffffffffffffffffffffffffffffffffffffffff1681526020019081526020016000206000820151816000015560208201518160010160006101000a81548173ffffffffffffffffffffffffffffffffffffffff021916908373ffffffffffffffffffffffffffffffffffffffff1602179055506040820151816002015590505060018060008282829054906101000a900467ffffffffffffffff16620017949190620028bd565b92506101000a81548167ffffffffffffffff021916908367ffffffffffffffff1602179055507f45353ebbf1c4a0468ba13a94bc212a3b8fc4b624385aa0e9c3fa07045d7d827d600080620017e86200191e565b73ffffffffffffffffffffffffffffffffffffffff1673ffffffffffffffffffffffffffffffffffffffff16815260200190815260200160002060010160009054906101000a900473ffffffffffffffffffffffffffffffffffffffff1660405162001855919062001b9f565b60405180910390a16000806200186a6200191e565b73ffffffffffffffffffffffffffffffffffffffff1673ffffffffffffffffffffffffffffffffffffffff168152602001908152602001600020604051806060016040529081600082015481526020016001820160009054906101000a900473ffffffffffffffffffffffffffffffffffffffff1673ffffffffffffffffffffffffffffffffffffffff1673ffffffffffffffffffffffffffffffffffffffff168152602001600282015481525050905090565b600033905090565b60008085878686866040516200193c9062001b4c565b6200194c9594939291906200299a565b604051809103906000f08015801562001969573d6000803e3d6000fd5b5090506001600560088282829054906101000a900467ffffffffffffffff16620019949190620028bd565b92506101000a81548167ffffffffffffffff021916908367ffffffffffffffff1602179055508060076000600560089054906101000a900467ffffffffffffffff1667ffffffffffffffff1667ffffffffffffffff16815260200190815260200160002060006101000a81548173ffffffffffffffffffffffffffffffffffffffff021916908373ffffffffffffffffffffffffffffffffffffffff1602179055506006819080600181540180825580915050600190039060005260206000200160009091909190916101000a81548173ffffffffffffffffffffffffffffffffffffffff021916908373ffffffffffffffffffffffffffffffffffffffff1602179055507fa9a62b7c28d7da43010d6fdf373b4026f4156bc0402ee1b0bdf2acf13a7414218733868660405162001ad0949392919062002a05565b60405180910390a18091505095945050505050565b6040518060400160405280600073ffffffffffffffffffffffffffffffffffffffff168152602001600081525090565b604051806060016040528060008152602001600073ffffffffffffffffffffffffffffffffffffffff168152602001600081525090565b61114c8062002a5a83390190565b600073ffffffffffffffffffffffffffffffffffffffff82169050919050565b600062001b878262001b5a565b9050919050565b62001b998162001b7a565b82525050565b600060208201905062001bb6600083018462001b8e565b92915050565b600081519050919050565b600082825260208201905092915050565b60005b8381101562001bf857808201518184015260208101905062001bdb565b8381111562001c08576000848401525b50505050565b6000601f19601f8301169050919050565b600062001c2c8262001bbc565b62001c38818562001bc7565b935062001c4a81856020860162001bd8565b62001c558162001c0e565b840191505092915050565b6000602082019050818103600083015262001c7c818462001c1f565b905092915050565b600067ffffffffffffffff82169050919050565b62001ca38162001c84565b82525050565b600060208201905062001cc0600083018462001c98565b92915050565b6000604051905090565b600080fd5b600080fd5b62001ce58162001b7a565b811462001cf157600080fd5b50565b60008135905062001d058162001cda565b92915050565b60006020828403121562001d245762001d2362001cd0565b5b600062001d348482850162001cf4565b91505092915050565b6000819050919050565b62001d528162001d3d565b82525050565b600060408201905062001d6f600083018562001b8e565b62001d7e602083018462001d47565b9392505050565b62001d908162001d3d565b811462001d9c57600080fd5b50565b60008135905062001db08162001d85565b92915050565b60006020828403121562001dcf5762001dce62001cd0565b5b600062001ddf8482850162001d9f565b91505092915050565b6000819050919050565b600062001e1362001e0d62001e078462001b5a565b62001de8565b62001b5a565b9050919050565b600062001e278262001df2565b9050919050565b600062001e3b8262001e1a565b9050919050565b62001e4d8162001e2e565b82525050565b600060208201905062001e6a600083018462001e42565b92915050565b600062001e7d8262001e1a565b9050919050565b62001e8f8162001e70565b82525050565b600060208201905062001eac600083018462001e84565b92915050565b60008115159050919050565b62001ec98162001eb2565b82525050565b600060208201905062001ee6600083018462001ebe565b92915050565b600080fd5b600080fd5b7f4e487b7100000000000000000000000000000000000000000000000000000000600052604160045260246000fd5b62001f308262001c0e565b810181811067ffffffffffffffff8211171562001f525762001f5162001ef6565b5b80604052505050565b600062001f6762001cc6565b905062001f75828262001f25565b919050565b600067ffffffffffffffff82111562001f985762001f9762001ef6565b5b62001fa38262001c0e565b9050602081019050919050565b82818337600083830152505050565b600062001fd662001fd08462001f7a565b62001f5b565b90508281526020810184848401111562001ff55762001ff462001ef1565b5b6200200284828562001fb0565b509392505050565b600082601f83011262002022576200202162001eec565b5b81356200203484826020860162001fbf565b91505092915050565b620020488162001c84565b81146200205457600080fd5b50565b60008135905062002068816200203d565b92915050565b600080600080600060a086880312156200208d576200208c62001cd0565b5b600086013567ffffffffffffffff811115620020ae57620020ad62001cd5565b5b620020bc888289016200200a565b955050602086013567ffffffffffffffff811115620020e057620020df62001cd5565b5b620020ee888289016200200a565b9450506040620021018882890162002057565b9350506060620021148882890162001cf4565b9250506080620021278882890162001d9f565b9150509295509295909350565b60006020820190506200214b600083018462001d47565b92915050565b6200215c8162001b7a565b82525050565b6200216d8162001d3d565b82525050565b6040820160008201516200218b600085018262002151565b506020820151620021a0602085018262002162565b50505050565b6000604082019050620021bd600083018462002173565b92915050565b620021ce8162001eb2565b8114620021da57600080fd5b50565b600081359050620021ee81620021c3565b92915050565b6000602082840312156200220d576200220c62001cd0565b5b60006200221d84828501620021dd565b91505092915050565b60006060820190506200223d600083018662001d47565b6200224c602083018562001b8e565b6200225b604083018462001d47565b949350505050565b600081519050919050565b600082825260208201905092915050565b6000819050602082019050919050565b6200229a8162001e2e565b82525050565b6000620022ae83836200228f565b60208301905092915050565b6000602082019050919050565b6000620022d48262002263565b620022e081856200226e565b9350620022ed836200227f565b8060005b8381101562002324578151620023088882620022a0565b97506200231583620022ba565b925050600181019050620022f1565b5085935050505092915050565b600060208201905081810360008301526200234d8184620022c7565b905092915050565b6000602082840312156200236e576200236d62001cd0565b5b60006200237e8482850162002057565b91505092915050565b6060820160008201516200239f600085018262002162565b506020820151620023b4602085018262002151565b506040820151620023c9604085018262002162565b50505050565b6000606082019050620023e6600083018462002387565b92915050565b7f4e487b7100000000000000000000000000000000000000000000000000000000600052602260045260246000fd5b600060028204905060018216806200243457607f821691505b602082108114156200244b576200244a620023ec565b5b50919050565b7f4e6f742061207374616b65686f6c646572000000000000000000000000000000600082015250565b60006200248960118362001bc7565b9150620024968262002451565b602082019050919050565b60006020820190508181036000830152620024bc816200247a565b9050919050565b7f4d757374207374616b656420666f7220372064617973206265666f726520756e60008201527f7374616b696e6700000000000000000000000000000000000000000000000000602082015250565b60006200252160278362001bc7565b91506200252e82620024c3565b604082019050919050565b60006020820190508181036000830152620025548162002512565b9050919050565b7f496e73756666696369656e74207374616b656420616d6f756e74000000000000600082015250565b600062002593601a8362001bc7565b9150620025a0826200255b565b602082019050919050565b60006020820190508181036000830152620025c68162002584565b9050919050565b7f4e487b7100000000000000000000000000000000000000000000000000000000600052601160045260246000fd5b6000620026098262001d3d565b9150620026168362001d3d565b9250828210156200262c576200262b620025cd565b5b828203905092915050565b6000620026448262001c84565b9150620026518362001c84565b925082821015620026675762002666620025cd565b5b828203905092915050565b7f696e76616c6964207374616b656420616d6f756e740000000000000000000000600082015250565b6000620026aa60158362001bc7565b9150620026b78262002672565b602082019050919050565b60006020820190508181036000830152620026dd816200269b565b9050919050565b6000620026f18262001d3d565b9150620026fe8362001d3d565b9250827fffffffffffffffffffffffffffffffffffffffffffffffffffffffffffffffff03821115620027365762002735620025cd565b5b828201905092915050565b7f546f6f206561726c790000000000000000000000000000000000000000000000600082015250565b60006200277960098362001bc7565b9150620027868262002741565b602082019050919050565b60006020820190508181036000830152620027ac816200276a565b9050919050565b7f6d7573742062652061207374616b65686f6c6465720000000000000000000000600082015250565b6000620027eb60158362001bc7565b9150620027f882620027b3565b602082019050919050565b600060208201905081810360008301526200281e81620027dc565b9050919050565b7f73757270617373206c696d6974206e756d626572206f6620747265617375726560008201527f48756e7465727300000000000000000000000000000000000000000000000000602082015250565b60006200288360278362001bc7565b9150620028908262002825565b604082019050919050565b60006020820190508181036000830152620028b68162002874565b9050919050565b6000620028ca8262001c84565b9150620028d78362001c84565b92508267ffffffffffffffff03821115620028f757620028f6620025cd565b5b828201905092915050565b7f73757270617373206c696d6974206e756d626572206f66207374616b65686f6c60008201527f6465727300000000000000000000000000000000000000000000000000000000602082015250565b60006200296060248362001bc7565b91506200296d8262002902565b604082019050919050565b60006020820190508181036000830152620029938162002951565b9050919050565b600060a0820190508181036000830152620029b6818862001c1f565b90508181036020830152620029cc818762001c1f565b9050620029dd604083018662001d47565b620029ec606083018562001b8e565b620029fb608083018462001d47565b9695505050505050565b6000608082019050818103600083015262002a21818762001c1f565b905062002a32602083018662001b8e565b62002a41604083018562001b8e565b62002a50606083018462001d47565b9594505050505056fe60806040523480156200001157600080fd5b506040516200114c3803806200114c833981810160405281019062000037919062000528565b8484846200005a6200004e6200016f60201b60201c565b6200017760201b60201c565b6200006a6200016f60201b60201c565b600160006101000a81548173ffffffffffffffffffffffffffffffffffffffff021916908373ffffffffffffffffffffffffffffffffffffffff1602179055508260029080519060200190620000c29291906200023b565b508160039080519060200190620000db9291906200023b565b50806004819055506000600560006101000a81548160ff0219169083151502179055506000600560016101000a81548160ff02191690831515021790555050505081600860006101000a81548173ffffffffffffffffffffffffffffffffffffffff021916908373ffffffffffffffffffffffffffffffffffffffff16021790555080600981905550505050505062000653565b600033905090565b60008060009054906101000a900473ffffffffffffffffffffffffffffffffffffffff169050816000806101000a81548173ffffffffffffffffffffffffffffffffffffffff021916908373ffffffffffffffffffffffffffffffffffffffff1602179055508173ffffffffffffffffffffffffffffffffffffffff168173ffffffffffffffffffffffffffffffffffffffff167f8be0079c531659141344cd1fd0a4f28419497f9722a3daafe3b4186f6b6457e060405160405180910390a35050565b82805462000249906200061d565b90600052602060002090601f0160209004810192826200026d5760008555620002b9565b82601f106200028857805160ff1916838001178555620002b9565b82800160010185558215620002b9579182015b82811115620002b85782518255916020019190600101906200029b565b5b509050620002c89190620002cc565b5090565b5b80821115620002e7576000816000905550600101620002cd565b5090565b6000604051905090565b600080fd5b600080fd5b600080fd5b600080fd5b6000601f19601f8301169050919050565b7f4e487b7100000000000000000000000000000000000000000000000000000000600052604160045260246000fd5b620003548262000309565b810181811067ffffffffffffffff821117156200037657620003756200031a565b5b80604052505050565b60006200038b620002eb565b905062000399828262000349565b919050565b600067ffffffffffffffff821115620003bc57620003bb6200031a565b5b620003c78262000309565b9050602081019050919050565b60005b83811015620003f4578082015181840152602081019050620003d7565b8381111562000404576000848401525b50505050565b6000620004216200041b846200039e565b6200037f565b90508281526020810184848401111562000440576200043f62000304565b5b6200044d848285620003d4565b509392505050565b600082601f8301126200046d576200046c620002ff565b5b81516200047f8482602086016200040a565b91505092915050565b6000819050919050565b6200049d8162000488565b8114620004a957600080fd5b50565b600081519050620004bd8162000492565b92915050565b600073ffffffffffffffffffffffffffffffffffffffff82169050919050565b6000620004f082620004c3565b9050919050565b6200050281620004e3565b81146200050e57600080fd5b50565b6000815190506200052281620004f7565b92915050565b600080600080600060a08688031215620005475762000546620002f5565b5b600086015167ffffffffffffffff811115620005685762000567620002fa565b5b620005768882890162000455565b955050602086015167ffffffffffffffff8111156200059a5762000599620002fa565b5b620005a88882890162000455565b9450506040620005bb88828901620004ac565b9350506060620005ce8882890162000511565b9250506080620005e188828901620004ac565b9150509295509295909350565b7f4e487b7100000000000000000000000000000000000000000000000000000000600052602260045260246000fd5b600060028204905060018216806200063657607f821691505b602082108114156200064d576200064c620005ee565b5b50919050565b610ae980620006636000396000f3fe608060405234801561001057600080fd5b50600436106100ea5760003560e01c806366d003ac1161008c5780638da5cb5b116100665780638da5cb5b14610217578063aa8c217c14610235578063f2fde38b14610253578063fcfff16f1461026f576100ea565b806366d003ac146101d1578063715018a6146101ef5780637284e416146101f9576100ea565b806343d726d6116100c857806343d726d6146101495780634a79d50c146101535780635351a3c814610171578063655b737f146101a1576100ea565b806302d05d3f146100ef578063036ee8501461010d578063227326b11461012b575b600080fd5b6100f761028d565b60405161010491906107b6565b60405180910390f35b6101156102b3565b60405161012291906107ea565b60405180910390f35b6101336102b9565b6040516101409190610820565b60405180910390f35b6101516102cc565b005b61015b610365565b60405161016891906108d4565b60405180910390f35b61018b60048036038101906101869190610927565b6103f3565b6040516101989190610820565b60405180910390f35b6101bb60048036038101906101b69190610927565b610413565b6040516101c89190610820565b60405180910390f35b6101d9610433565b6040516101e691906107b6565b60405180910390f35b6101f7610459565b005b6102016104e1565b60405161020e91906108d4565b60405180910390f35b61021f61056f565b60405161022c91906107b6565b60405180910390f35b61023d610598565b60405161024a91906107ea565b60405180910390f35b61026d60048036038101906102689190610927565b61059e565b005b610277610696565b6040516102849190610820565b60405180910390f35b600160009054906101000a900473ffffffffffffffffffffffffffffffffffffffff1681565b60045481565b600560019054906101000a900460ff1681565b6102d46106a9565b73ffffffffffffffffffffffffffffffffffffffff166102f261056f565b73ffffffffffffffffffffffffffffffffffffffff1614610348576040517f08c379a000000000000000000000000000000000000000000000000000000000815260040161033f906109a0565b60405180910390fd5b6000600560006101000a81548160ff021916908315150217905550565b60038054610372906109ef565b80601f016020809104026020016040519081016040528092919081815260200182805461039e906109ef565b80156103eb5780601f106103c0576101008083540402835291602001916103eb565b820191906000526020600020905b8154815290600101906020018083116103ce57829003601f168201915b505050505081565b60076020528060005260406000206000915054906101000a900460ff1681565b60066020528060005260406000206000915054906101000a900460ff1681565b600860009054906101000a900473ffffffffffffffffffffffffffffffffffffffff1681565b6104616106a9565b73ffffffffffffffffffffffffffffffffffffffff1661047f61056f565b73ffffffffffffffffffffffffffffffffffffffff16146104d5576040517f08c379a00000000000000000000000000000000000000000000000000000000081526004016104cc906109a0565b60405180910390fd5b6104df60006106b1565b565b600280546104ee906109ef565b80601f016020809104026020016040519081016040528092919081815260200182805461051a906109ef565b80156105675780601f1061053c57610100808354040283529160200191610567565b820191906000526020600020905b81548152906001019060200180831161054a57829003601f168201915b505050505081565b60008060009054906101000a900473ffffffffffffffffffffffffffffffffffffffff16905090565b60095481565b6105a66106a9565b73ffffffffffffffffffffffffffffffffffffffff166105c461056f565b73ffffffffffffffffffffffffffffffffffffffff161461061a576040517f08c379a0000000000000000000000000000000000000000000000000000000008152600401610611906109a0565b60405180910390fd5b600073ffffffffffffffffffffffffffffffffffffffff168173ffffffffffffffffffffffffffffffffffffffff16141561068a576040517f08c379a000000000000000000000000000000000000000000000000000000000815260040161068190610a93565b60405180910390fd5b610693816106b1565b50565b600560009054906101000a900460ff1681565b600033905090565b60008060009054906101000a900473ffffffffffffffffffffffffffffffffffffffff169050816000806101000a81548173ffffffffffffffffffffffffffffffffffffffff021916908373ffffffffffffffffffffffffffffffffffffffff1602179055508173ffffffffffffffffffffffffffffffffffffffff168173ffffffffffffffffffffffffffffffffffffffff167f8be0079c531659141344cd1fd0a4f28419497f9722a3daafe3b4186f6b6457e060405160405180910390a35050565b600073ffffffffffffffffffffffffffffffffffffffff82169050919050565b60006107a082610775565b9050919050565b6107b081610795565b82525050565b60006020820190506107cb60008301846107a7565b92915050565b6000819050919050565b6107e4816107d1565b82525050565b60006020820190506107ff60008301846107db565b92915050565b60008115159050919050565b61081a81610805565b82525050565b60006020820190506108356000830184610811565b92915050565b600081519050919050565b600082825260208201905092915050565b60005b8381101561087557808201518184015260208101905061085a565b83811115610884576000848401525b50505050565b6000601f19601f8301169050919050565b60006108a68261083b565b6108b08185610846565b93506108c0818560208601610857565b6108c98161088a565b840191505092915050565b600060208201905081810360008301526108ee818461089b565b905092915050565b600080fd5b61090481610795565b811461090f57600080fd5b50565b600081359050610921816108fb565b92915050565b60006020828403121561093d5761093c6108f6565b5b600061094b84828501610912565b91505092915050565b7f4f776e61626c653a2063616c6c6572206973206e6f7420746865206f776e6572600082015250565b600061098a602083610846565b915061099582610954565b602082019050919050565b600060208201905081810360008301526109b98161097d565b9050919050565b7f4e487b7100000000000000000000000000000000000000000000000000000000600052602260045260246000fd5b60006002820490506001821680610a0757607f821691505b60208210811415610a1b57610a1a6109c0565b5b50919050565b7f4f776e61626c653a206e6577206f776e657220697320746865207a65726f206160008201527f6464726573730000000000000000000000000000000000000000000000000000602082015250565b6000610a7d602683610846565b9150610a8882610a21565b604082019050919050565b60006020820190508181036000830152610aac81610a70565b905091905056fea26469706673582212201ebd3b5efa0ba8c103c20646fd6e91a0785683c59e5067a51212b8624386b11564736f6c63430008090033a2646970667358221220e2dd0a69b5ecb20e86205b50c5afa6e7754fd09cc10ca8d62c3b6165bedb98cd64736f6c63430008090033a2646970667358221220297d7f9cbf4bf0d5cff6dd94066eafc3deb6ea20ba4f58eaf68ae9a009292ca664736f6c63430008090033",
  "immutableReferences": {},
  "source": "// SPDX-License-Identifier: MIT\npragma solidity >=0.8.0;\n\nimport \"./ITreasureBayFactory.sol\";\nimport \"./TreasureBay.sol\";\nimport \"@openzeppelin/contracts/utils/Context.sol\";\n\ncontract TreasureBayFactory is ITreasureBayFactory, Context {\n  ITreasureBay[] private _listOfBays;\n  mapping(address => ITreasureBay) _mapOfBays;\n\n  function createNewBay(\n    string memory name_,\n    uint64 limitNumberOfMembers_,\n    uint64 limitNumberOfTreasureHunters_\n  ) external override returns (bool) {\n    TreasureBay bay = new TreasureBay(\n      name_,\n      limitNumberOfMembers_,\n      limitNumberOfTreasureHunters_\n    );\n    _listOfBays.push(bay);\n    _mapOfBays[address(bay)] = bay;\n\n    emit NewBayCreated(name_, _msgSender(), address(bay));\n    return true;\n  }\n\n  function getAllBays() external view override returns (ITreasureBay[] memory) {\n    return _listOfBays;\n  }\n\n  function getBay(address bayAddress)\n    external\n    view\n    override\n    returns (ITreasureBay)\n  {\n    return _mapOfBays[address(bayAddress)];\n  }\n}\n",
  "sourcePath": "/Users/chungquantin/Desktop/Projects/DecentralizedOpenSource/smart-bay/contracts/features/dao/TreasureBayFactory.sol",
  "compiler": {
    "name": "solc",
    "version": "0.8.9+commit.e5eed63a.Emscripten.clang"
  },
  "schemaVersion": "3.4.3",
  "updatedAt": "2021-11-12T14:37:00.847Z",
  "devdoc": {
    "kind": "dev",
    "methods": {},
    "version": 1
  },
  "userdoc": {
    "kind": "user",
    "methods": {},
    "version": 1
  }
}