{
  "contractName": "TreasureBay",
  "abi": [
    {
      "inputs": [
        {
          "internalType": "string",
          "name": "name_",
          "type": "string"
        },
        {
          "internalType": "uint64",
          "name": "limitNumberOfStakeholders_",
          "type": "uint64"
        }
      ],
      "stateMutability": "payable",
      "type": "constructor"
    },
    {
      "anonymous": false,
      "inputs": [],
      "name": "NewPoolCreated",
      "type": "event"
    },
    {
      "anonymous": false,
      "inputs": [
        {
          "indexed": false,
          "internalType": "address",
          "name": "stakeholder",
          "type": "address"
        }
      ],
      "name": "NewStakeholder",
      "type": "event"
    },
    {
      "anonymous": false,
      "inputs": [
        {
          "indexed": true,
          "internalType": "uint256",
          "name": "proposalID",
          "type": "uint256"
        },
        {
          "indexed": false,
          "internalType": "address",
          "name": "recipient",
          "type": "address"
        },
        {
          "indexed": false,
          "internalType": "uint256",
          "name": "amount",
          "type": "uint256"
        },
        {
          "indexed": false,
          "internalType": "string",
          "name": "description",
          "type": "string"
        }
      ],
      "name": "ProposalAdded",
      "type": "event"
    },
    {
      "anonymous": false,
      "inputs": [
        {
          "indexed": false,
          "internalType": "address",
          "name": "stakeholder",
          "type": "address"
        }
      ],
      "name": "RemoveStakeholder",
      "type": "event"
    },
    {
      "anonymous": false,
      "inputs": [
        {
          "indexed": false,
          "internalType": "address",
          "name": "stakeholder",
          "type": "address"
        },
        {
          "indexed": false,
          "internalType": "uint256",
          "name": "amount",
          "type": "uint256"
        }
      ],
      "name": "Stake",
      "type": "event"
    },
    {
      "anonymous": false,
      "inputs": [
        {
          "indexed": false,
          "internalType": "address",
          "name": "stakeholder",
          "type": "address"
        },
        {
          "indexed": false,
          "internalType": "uint256",
          "name": "amount",
          "type": "uint256"
        }
      ],
      "name": "Unstake",
      "type": "event"
    },
    {
      "anonymous": false,
      "inputs": [
        {
          "indexed": true,
          "internalType": "uint256",
          "name": "proposalID",
          "type": "uint256"
        },
        {
          "indexed": false,
          "internalType": "bool",
          "name": "position",
          "type": "bool"
        },
        {
          "indexed": true,
          "internalType": "address",
          "name": "voter",
          "type": "address"
        }
      ],
      "name": "Voted",
      "type": "event"
    },
    {
      "inputs": [],
      "name": "admin",
      "outputs": [
        {
          "internalType": "address",
          "name": "",
          "type": "address"
        }
      ],
      "stateMutability": "view",
      "type": "function"
    },
    {
      "inputs": [
        {
          "internalType": "address",
          "name": "",
          "type": "address"
        }
      ],
      "name": "allowedRecipients",
      "outputs": [
        {
          "internalType": "bool",
          "name": "",
          "type": "bool"
        }
      ],
      "stateMutability": "view",
      "type": "function"
    },
    {
      "inputs": [],
      "name": "daoAddress",
      "outputs": [
        {
          "internalType": "address",
          "name": "",
          "type": "address"
        }
      ],
      "stateMutability": "view",
      "type": "function"
    },
    {
      "inputs": [],
      "name": "limitNumberOfStakeholders",
      "outputs": [
        {
          "internalType": "uint64",
          "name": "",
          "type": "uint64"
        }
      ],
      "stateMutability": "view",
      "type": "function"
    },
    {
      "inputs": [
        {
          "internalType": "address",
          "name": "",
          "type": "address"
        }
      ],
      "name": "stakeholders",
      "outputs": [
        {
          "internalType": "uint256",
          "name": "balance",
          "type": "uint256"
        },
        {
          "internalType": "address",
          "name": "walletAddress",
          "type": "address"
        },
        {
          "internalType": "uint256",
          "name": "claimedInterval",
          "type": "uint256"
        }
      ],
      "stateMutability": "view",
      "type": "function"
    },
    {
      "inputs": [],
      "name": "totalNumberOfStakeholders",
      "outputs": [
        {
          "internalType": "uint64",
          "name": "",
          "type": "uint64"
        }
      ],
      "stateMutability": "view",
      "type": "function"
    },
    {
      "inputs": [],
      "name": "totalStakedAmount",
      "outputs": [
        {
          "internalType": "uint256",
          "name": "",
          "type": "uint256"
        }
      ],
      "stateMutability": "view",
      "type": "function"
    },
    {
      "inputs": [],
      "name": "name",
      "outputs": [
        {
          "internalType": "string",
          "name": "",
          "type": "string"
        }
      ],
      "stateMutability": "view",
      "type": "function"
    },
    {
      "inputs": [],
      "name": "creator",
      "outputs": [
        {
          "internalType": "address",
          "name": "",
          "type": "address"
        }
      ],
      "stateMutability": "view",
      "type": "function"
    },
    {
      "inputs": [
        {
          "internalType": "bool",
          "name": "isActivated_",
          "type": "bool"
        }
      ],
      "name": "toggleIsActivated",
      "outputs": [
        {
          "internalType": "bool",
          "name": "_success",
          "type": "bool"
        }
      ],
      "stateMutability": "nonpayable",
      "type": "function"
    }
  ],
  "bytecode": "0x6080604052666a94d74f430000600860006101000a81548167ffffffffffffffff021916908367ffffffffffffffff1602179055506000600a60146101000a81548160ff02191690831515021790555060405162000ee638038062000ee6833981810160405281019062000074919062000659565b33600160006101000a81548173ffffffffffffffffffffffffffffffffffffffff021916908373ffffffffffffffffffffffffffffffffffffffff16021790555080600460006101000a81548167ffffffffffffffff021916908367ffffffffffffffff1602179055508160099080519060200190620000f6929190620003c7565b50620001076200022360201b60201c565b600a60006101000a81548173ffffffffffffffffffffffffffffffffffffffff021916908373ffffffffffffffffffffffffffffffffffffffff1602179055506040518060600160405280348152602001620001686200022360201b60201c565b73ffffffffffffffffffffffffffffffffffffffff1681526020016203f48081525060056000820151816000015560208201518160010160006101000a81548173ffffffffffffffffffffffffffffffffffffffff021916908373ffffffffffffffffffffffffffffffffffffffff160217905550604082015181600201559050506200021b600860009054906101000a900467ffffffffffffffff1667ffffffffffffffff166200022b60201b60201c565b5050620007ba565b600033905090565b60405180606001604052808281526020013373ffffffffffffffffffffffffffffffffffffffff1681526020016203f48081525060056000820151816000015560208201518160010160006101000a81548173ffffffffffffffffffffffffffffffffffffffff021916908373ffffffffffffffffffffffffffffffffffffffff1602179055506040820151816002015590505060056000803373ffffffffffffffffffffffffffffffffffffffff1673ffffffffffffffffffffffffffffffffffffffff168152602001908152602001600020600082015481600001556001820160009054906101000a900473ffffffffffffffffffffffffffffffffffffffff168160010160006101000a81548173ffffffffffffffffffffffffffffffffffffffff021916908373ffffffffffffffffffffffffffffffffffffffff160217905550600282015481600201559050508060036000828254620003919190620006f8565b925050819055507fa57885c086efe1c0f6542f489d7d1a4fcadad9e0d1010bdb26ba442a09eae68f60405160405180910390a150565b828054620003d59062000784565b90600052602060002090601f016020900481019282620003f9576000855562000445565b82601f106200041457805160ff191683800117855562000445565b8280016001018555821562000445579182015b828111156200044457825182559160200191906001019062000427565b5b50905062000454919062000458565b5090565b5b808211156200047357600081600090555060010162000459565b5090565b6000604051905090565b600080fd5b600080fd5b600080fd5b600080fd5b6000601f19601f8301169050919050565b7f4e487b7100000000000000000000000000000000000000000000000000000000600052604160045260246000fd5b620004e08262000495565b810181811067ffffffffffffffff82111715620005025762000501620004a6565b5b80604052505050565b60006200051762000477565b9050620005258282620004d5565b919050565b600067ffffffffffffffff821115620005485762000547620004a6565b5b620005538262000495565b9050602081019050919050565b60005b838110156200058057808201518184015260208101905062000563565b8381111562000590576000848401525b50505050565b6000620005ad620005a7846200052a565b6200050b565b905082815260208101848484011115620005cc57620005cb62000490565b5b620005d984828562000560565b509392505050565b600082601f830112620005f957620005f86200048b565b5b81516200060b84826020860162000596565b91505092915050565b600067ffffffffffffffff82169050919050565b620006338162000614565b81146200063f57600080fd5b50565b600081519050620006538162000628565b92915050565b6000806040838503121562000673576200067262000481565b5b600083015167ffffffffffffffff81111562000694576200069362000486565b5b620006a285828601620005e1565b9250506020620006b58582860162000642565b9150509250929050565b6000819050919050565b7f4e487b7100000000000000000000000000000000000000000000000000000000600052601160045260246000fd5b60006200070582620006bf565b91506200071283620006bf565b9250827fffffffffffffffffffffffffffffffffffffffffffffffffffffffffffffffff038211156200074a5762000749620006c9565b5b828201905092915050565b7f4e487b7100000000000000000000000000000000000000000000000000000000600052602260045260246000fd5b600060028204905060018216806200079d57607f821691505b60208210811415620007b457620007b362000755565b5b50919050565b61071c80620007ca6000396000f3fe608060405234801561001057600080fd5b506004361061009e5760003560e01c8063567e98f911610066578063567e98f91461014b578063665e3d831461016957806384780fd214610199578063c07cfca9146101b7578063f851a440146101e95761009e565b806302d05d3f146100a357806306fdde03146100c15780632131c68c146100df57806328cd1494146100fd5780634df6d6cc1461011b575b600080fd5b6100ab610207565b6040516100b89190610419565b60405180910390f35b6100c9610231565b6040516100d691906104cd565b60405180910390f35b6100e76102c3565b6040516100f49190610419565b60405180910390f35b6101056102e9565b6040516101129190610512565b60405180910390f35b6101356004803603810190610130919061055e565b610303565b60405161014291906105a6565b60405180910390f35b610153610323565b60405161016091906105da565b60405180910390f35b610183600480360381019061017e9190610621565b610329565b60405161019091906105a6565b60405180910390f35b6101a161034e565b6040516101ae9190610512565b60405180910390f35b6101d160048036038101906101cc919061055e565b610368565b6040516101e09392919061064e565b60405180910390f35b6101f16103b2565b6040516101fe9190610419565b60405180910390f35b6000600a60009054906101000a900473ffffffffffffffffffffffffffffffffffffffff16905090565b606060098054610240906106b4565b80601f016020809104026020016040519081016040528092919081815260200182805461026c906106b4565b80156102b95780601f1061028e576101008083540402835291602001916102b9565b820191906000526020600020905b81548152906001019060200180831161029c57829003601f168201915b5050505050905090565b600260009054906101000a900473ffffffffffffffffffffffffffffffffffffffff1681565b600460009054906101000a900467ffffffffffffffff1681565b600b6020528060005260406000206000915054906101000a900460ff1681565b60035481565b600081600a60146101000a81548160ff02191690831515021790555060019050919050565b600460089054906101000a900467ffffffffffffffff1681565b60006020528060005260406000206000915090508060000154908060010160009054906101000a900473ffffffffffffffffffffffffffffffffffffffff16908060020154905083565b600160009054906101000a900473ffffffffffffffffffffffffffffffffffffffff1681565b600073ffffffffffffffffffffffffffffffffffffffff82169050919050565b6000610403826103d8565b9050919050565b610413816103f8565b82525050565b600060208201905061042e600083018461040a565b92915050565b600081519050919050565b600082825260208201905092915050565b60005b8381101561046e578082015181840152602081019050610453565b8381111561047d576000848401525b50505050565b6000601f19601f8301169050919050565b600061049f82610434565b6104a9818561043f565b93506104b9818560208601610450565b6104c281610483565b840191505092915050565b600060208201905081810360008301526104e78184610494565b905092915050565b600067ffffffffffffffff82169050919050565b61050c816104ef565b82525050565b60006020820190506105276000830184610503565b92915050565b600080fd5b61053b816103f8565b811461054657600080fd5b50565b60008135905061055881610532565b92915050565b6000602082840312156105745761057361052d565b5b600061058284828501610549565b91505092915050565b60008115159050919050565b6105a08161058b565b82525050565b60006020820190506105bb6000830184610597565b92915050565b6000819050919050565b6105d4816105c1565b82525050565b60006020820190506105ef60008301846105cb565b92915050565b6105fe8161058b565b811461060957600080fd5b50565b60008135905061061b816105f5565b92915050565b6000602082840312156106375761063661052d565b5b60006106458482850161060c565b91505092915050565b600060608201905061066360008301866105cb565b610670602083018561040a565b61067d60408301846105cb565b949350505050565b7f4e487b7100000000000000000000000000000000000000000000000000000000600052602260045260246000fd5b600060028204905060018216806106cc57607f821691505b602082108114156106e0576106df610685565b5b5091905056fea26469706673582212209d4212fbdd2bfbd48aaf96035a7297c59df50ed12dc0539473932f8617a32d7564736f6c63430008090033",
  "immutableReferences": {},
  "source": "// SPDX-License-Identifier: MIT\npragma solidity >=0.8.0;\n\nimport \"./ITreasureBay.sol\";\nimport \"./TreasurePool.sol\";\nimport \"@openzeppelin/contracts/token/ERC20/IERC20.sol\";\nimport \"@openzeppelin/contracts/token/ERC20/ERC20.sol\";\nimport \"@openzeppelin/contracts/utils/Context.sol\";\n\ncontract TreasureBay is ITreasureBay, TreasurePool, Context {\n  // struct Proposal {\n  //   address recipient; // The address where the `amount` will go to if the proposal is accepted\n  //   address creator; // Address of the shareholder who created the proposal\n  //   uint256 amount; // The amount to transfer to `recipient` if the proposal is accepted.\n  //   string description; // A plain text description of the proposal\n  //   uint256 votingDeadline; // A unix timestamp, denoting the end of the voting period\n  //   bool open; // True if the proposal's votes have yet to be counted, otherwise False\n  //   bool proposalPassed; // True if quorum has been reached, the votes have been counted, and the majority said yes\n  //   bytes32 proposalHash; // A hash to check validity of a proposal\n  //   // Deposit in wei the creator added when submitting their proposal. It\n  //   // is taken from the msg.value of a newProposal call.\n  //   uint256 proposalDeposit;\n  //   // true if more tokens are in favour of the proposal than opposed to it at\n  //   // least `preSupportTime` before the voting deadline\n  //   bool preSupport;\n  //   mapping(address => bool) votedYes; // Simple mapping to check if a shareholder has voted for it\n  //   mapping(address => bool) votedNo; // Simple mapping to check if a shareholder has voted against it\n  // }\n  uint64 private BAY_CREATION_FEE = 0.03 ether;\n  string private _name;\n  address private _creator;\n  // If there are more than 3 members, activated\n  bool private _isActivated = false;\n\n  mapping(address => bool) public allowedRecipients;\n\n  // TODO Proposal[] public proposals;\n\n  constructor(string memory name_, uint64 limitNumberOfStakeholders_)\n    payable\n    ITreasureBay()\n  {\n    limitNumberOfStakeholders = limitNumberOfStakeholders_;\n    _name = name_;\n    _creator = _msgSender();\n    stakeholder = Stakeholder(msg.value, _msgSender(), 3 days);\n    // Initialize a staking pool\n    _init(BAY_CREATION_FEE);\n  }\n\n  /**\n   * @dev Returns the name of the treasure bay.\n   */\n  function name() public view virtual returns (string memory) {\n    return _name;\n  }\n\n  /**\n   * @dev Returns the name of the treasure bay.\n   */\n  function creator() public view virtual returns (address) {\n    return _creator;\n  }\n\n  // function newProposal(\n  //   address _recipient,\n  //   uint256 _amount,\n  //   string memory _description,\n  //   bytes memory _transactionData,\n  //   uint256 _debatingPeriod,\n  //   bool _newCurator\n  // ) external payable override returns (uint256 _proposalID) {}\n\n  // function vote(uint256 _proposalID) external override returns (bool) {}\n\n  // function unvote(uint256 _proposalID) external override returns (bool) {}\n\n  // function executeProposal(uint256 _proposalID, bytes memory _transactionData)\n  //   external\n  //   override\n  //   returns (bool _success)\n  // {}\n\n  // function changeAllowedRecipients(address _recipient, bool _allowed)\n  //   external\n  //   override\n  //   returns (bool _success)\n  // {}\n\n  function toggleIsActivated(bool isActivated_)\n    external\n    override\n    returns (bool _success)\n  {\n    _isActivated = isActivated_;\n    return true;\n  }\n\n  // function stake(uint256 _amount)\n  //   external\n  //   payable\n  //   override\n  // {\n  //   IERC20 token = ERC20(msg.sender);\n  //   uint256 erc20balance = token.balanceOf(msg.sender);\n  //   token.approve(address(this), _amount);\n  //   require(_amount <= erc20balance, \"Amount is low\");\n  //   // token.transferFrom(msg.sender, address(this), _amount);\n  //   // if (isActivated == false) {\n  //   //   isActivated = true;\n  //   // }\n  // }\n}\n",
  "sourcePath": "/Users/chungquantin/Desktop/Projects/DecentralizedOpenSource/smart-bay/contracts/features/dao/TreasureBay.sol",
  "compiler": {
    "name": "solc",
    "version": "0.8.9+commit.e5eed63a.Emscripten.clang"
  },
  "schemaVersion": "3.4.3",
  "updatedAt": "2021-11-12T08:18:38.248Z",
  "devdoc": {
    "kind": "dev",
    "methods": {
      "creator()": {
        "details": "Returns the name of the treasure bay."
      },
      "name()": {
        "details": "Returns the name of the treasure bay."
      }
    },
    "version": 1
  },
  "userdoc": {
    "kind": "user",
    "methods": {},
    "version": 1
  }
}