{
  "contractName": "TreasureBay",
  "abi": [
    {
      "inputs": [
        {
          "internalType": "string",
          "name": "name_",
          "type": "string"
        },
        {
          "internalType": "uint64",
          "name": "limitNumberOfStakeholders_",
          "type": "uint64"
        }
      ],
      "stateMutability": "payable",
      "type": "constructor"
    },
    {
      "anonymous": false,
      "inputs": [],
      "name": "NewPoolCreated",
      "type": "event"
    },
    {
      "anonymous": false,
      "inputs": [
        {
          "indexed": false,
          "internalType": "address",
          "name": "stakeholder",
          "type": "address"
        }
      ],
      "name": "NewStakeholder",
      "type": "event"
    },
    {
      "anonymous": false,
      "inputs": [
        {
          "indexed": true,
          "internalType": "uint256",
          "name": "proposalID",
          "type": "uint256"
        },
        {
          "indexed": false,
          "internalType": "address",
          "name": "recipient",
          "type": "address"
        },
        {
          "indexed": false,
          "internalType": "uint256",
          "name": "amount",
          "type": "uint256"
        },
        {
          "indexed": false,
          "internalType": "string",
          "name": "description",
          "type": "string"
        }
      ],
      "name": "ProposalAdded",
      "type": "event"
    },
    {
      "anonymous": false,
      "inputs": [
        {
          "indexed": false,
          "internalType": "address",
          "name": "stakeholder",
          "type": "address"
        }
      ],
      "name": "RemoveStakeholder",
      "type": "event"
    },
    {
      "anonymous": false,
      "inputs": [
        {
          "indexed": false,
          "internalType": "address",
          "name": "stakeholder",
          "type": "address"
        },
        {
          "indexed": false,
          "internalType": "uint256",
          "name": "amount",
          "type": "uint256"
        }
      ],
      "name": "Stake",
      "type": "event"
    },
    {
      "anonymous": false,
      "inputs": [
        {
          "indexed": false,
          "internalType": "address",
          "name": "stakeholder",
          "type": "address"
        },
        {
          "indexed": false,
          "internalType": "uint256",
          "name": "amount",
          "type": "uint256"
        }
      ],
      "name": "Unstake",
      "type": "event"
    },
    {
      "anonymous": false,
      "inputs": [
        {
          "indexed": true,
          "internalType": "uint256",
          "name": "proposalID",
          "type": "uint256"
        },
        {
          "indexed": false,
          "internalType": "bool",
          "name": "position",
          "type": "bool"
        },
        {
          "indexed": true,
          "internalType": "address",
          "name": "voter",
          "type": "address"
        }
      ],
      "name": "Voted",
      "type": "event"
    },
    {
      "inputs": [],
      "name": "admin",
      "outputs": [
        {
          "internalType": "address",
          "name": "",
          "type": "address"
        }
      ],
      "stateMutability": "view",
      "type": "function"
    },
    {
      "inputs": [
        {
          "internalType": "address",
          "name": "",
          "type": "address"
        }
      ],
      "name": "allowedRecipients",
      "outputs": [
        {
          "internalType": "bool",
          "name": "",
          "type": "bool"
        }
      ],
      "stateMutability": "view",
      "type": "function"
    },
    {
      "inputs": [],
      "name": "creator",
      "outputs": [
        {
          "internalType": "address",
          "name": "",
          "type": "address"
        }
      ],
      "stateMutability": "view",
      "type": "function"
    },
    {
      "inputs": [],
      "name": "daoAddress",
      "outputs": [
        {
          "internalType": "address",
          "name": "",
          "type": "address"
        }
      ],
      "stateMutability": "view",
      "type": "function"
    },
    {
      "inputs": [],
      "name": "fund",
      "outputs": [
        {
          "internalType": "uint256",
          "name": "",
          "type": "uint256"
        }
      ],
      "stateMutability": "view",
      "type": "function"
    },
    {
      "inputs": [],
      "name": "isActivated",
      "outputs": [
        {
          "internalType": "bool",
          "name": "",
          "type": "bool"
        }
      ],
      "stateMutability": "view",
      "type": "function"
    },
    {
      "inputs": [],
      "name": "limitNumberOfStakeholders",
      "outputs": [
        {
          "internalType": "uint64",
          "name": "",
          "type": "uint64"
        }
      ],
      "stateMutability": "view",
      "type": "function"
    },
    {
      "inputs": [],
      "name": "name",
      "outputs": [
        {
          "internalType": "string",
          "name": "",
          "type": "string"
        }
      ],
      "stateMutability": "view",
      "type": "function"
    },
    {
      "inputs": [
        {
          "internalType": "address",
          "name": "",
          "type": "address"
        }
      ],
      "name": "stakeholders",
      "outputs": [
        {
          "internalType": "uint256",
          "name": "balance",
          "type": "uint256"
        },
        {
          "internalType": "address",
          "name": "walletAddress",
          "type": "address"
        },
        {
          "internalType": "uint256",
          "name": "claimedInterval",
          "type": "uint256"
        }
      ],
      "stateMutability": "view",
      "type": "function"
    },
    {
      "inputs": [],
      "name": "totalNumberOfStakeholders",
      "outputs": [
        {
          "internalType": "uint64",
          "name": "",
          "type": "uint64"
        }
      ],
      "stateMutability": "view",
      "type": "function"
    },
    {
      "inputs": [],
      "name": "totalStakedAmount",
      "outputs": [
        {
          "internalType": "uint256",
          "name": "",
          "type": "uint256"
        }
      ],
      "stateMutability": "view",
      "type": "function"
    },
    {
      "inputs": [
        {
          "internalType": "bool",
          "name": "_isActivated",
          "type": "bool"
        }
      ],
      "name": "toggleIsActivated",
      "outputs": [
        {
          "internalType": "bool",
          "name": "_success",
          "type": "bool"
        }
      ],
      "stateMutability": "nonpayable",
      "type": "function"
    }
  ],
  "bytecode": "0x6080604052666a94d74f430000600860006101000a81548167ffffffffffffffff021916908367ffffffffffffffff1602179055506000600b60146101000a81548160ff02191690831515021790555060405162000f2338038062000f23833981810160405281019062000074919062000633565b33600160006101000a81548173ffffffffffffffffffffffffffffffffffffffff021916908373ffffffffffffffffffffffffffffffffffffffff16021790555080600460006101000a81548167ffffffffffffffff021916908367ffffffffffffffff1602179055508160099080519060200190620000f6929190620003a1565b5033600b60006101000a81548173ffffffffffffffffffffffffffffffffffffffff021916908373ffffffffffffffffffffffffffffffffffffffff16021790555060405180606001604052803481526020013373ffffffffffffffffffffffffffffffffffffffff1681526020016203f48081525060056000820151816000015560208201518160010160006101000a81548173ffffffffffffffffffffffffffffffffffffffff021916908373ffffffffffffffffffffffffffffffffffffffff16021790555060408201518160020155905050620001fd600860009054906101000a900467ffffffffffffffff1667ffffffffffffffff166200020560201b60201c565b505062000794565b60405180606001604052808281526020013373ffffffffffffffffffffffffffffffffffffffff1681526020016203f48081525060056000820151816000015560208201518160010160006101000a81548173ffffffffffffffffffffffffffffffffffffffff021916908373ffffffffffffffffffffffffffffffffffffffff1602179055506040820151816002015590505060056000803373ffffffffffffffffffffffffffffffffffffffff1673ffffffffffffffffffffffffffffffffffffffff168152602001908152602001600020600082015481600001556001820160009054906101000a900473ffffffffffffffffffffffffffffffffffffffff168160010160006101000a81548173ffffffffffffffffffffffffffffffffffffffff021916908373ffffffffffffffffffffffffffffffffffffffff1602179055506002820154816002015590505080600360008282546200036b9190620006d2565b925050819055507fa57885c086efe1c0f6542f489d7d1a4fcadad9e0d1010bdb26ba442a09eae68f60405160405180910390a150565b828054620003af906200075e565b90600052602060002090601f016020900481019282620003d357600085556200041f565b82601f10620003ee57805160ff19168380011785556200041f565b828001600101855582156200041f579182015b828111156200041e57825182559160200191906001019062000401565b5b5090506200042e919062000432565b5090565b5b808211156200044d57600081600090555060010162000433565b5090565b6000604051905090565b600080fd5b600080fd5b600080fd5b600080fd5b6000601f19601f8301169050919050565b7f4e487b7100000000000000000000000000000000000000000000000000000000600052604160045260246000fd5b620004ba826200046f565b810181811067ffffffffffffffff82111715620004dc57620004db62000480565b5b80604052505050565b6000620004f162000451565b9050620004ff8282620004af565b919050565b600067ffffffffffffffff82111562000522576200052162000480565b5b6200052d826200046f565b9050602081019050919050565b60005b838110156200055a5780820151818401526020810190506200053d565b838111156200056a576000848401525b50505050565b600062000587620005818462000504565b620004e5565b905082815260208101848484011115620005a657620005a56200046a565b5b620005b38482856200053a565b509392505050565b600082601f830112620005d357620005d262000465565b5b8151620005e584826020860162000570565b91505092915050565b600067ffffffffffffffff82169050919050565b6200060d81620005ee565b81146200061957600080fd5b50565b6000815190506200062d8162000602565b92915050565b600080604083850312156200064d576200064c6200045b565b5b600083015167ffffffffffffffff8111156200066e576200066d62000460565b5b6200067c85828601620005bb565b92505060206200068f858286016200061c565b9150509250929050565b6000819050919050565b7f4e487b7100000000000000000000000000000000000000000000000000000000600052601160045260246000fd5b6000620006df8262000699565b9150620006ec8362000699565b9250827fffffffffffffffffffffffffffffffffffffffffffffffffffffffffffffffff03821115620007245762000723620006a3565b5b828201905092915050565b7f4e487b7100000000000000000000000000000000000000000000000000000000600052602260045260246000fd5b600060028204905060018216806200077757607f821691505b602082108114156200078e576200078d6200072f565b5b50919050565b61077f80620007a46000396000f3fe608060405234801561001057600080fd5b50600436106100b45760003560e01c8063567e98f911610071578063567e98f91461017f578063665e3d831461019d57806384780fd2146101cd578063b60d4288146101eb578063c07cfca914610209578063f851a4401461023b576100b4565b806302d05d3f146100b957806306fdde03146100d75780632131c68c146100f557806328cd1494146101135780634a8c1fb4146101315780634df6d6cc1461014f575b600080fd5b6100c1610259565b6040516100ce919061047c565b60405180910390f35b6100df61027f565b6040516100ec9190610530565b60405180910390f35b6100fd61030d565b60405161010a919061047c565b60405180910390f35b61011b610333565b6040516101289190610575565b60405180910390f35b61013961034d565b60405161014691906105ab565b60405180910390f35b610169600480360381019061016491906105f7565b610360565b60405161017691906105ab565b60405180910390f35b610187610380565b604051610194919061063d565b60405180910390f35b6101b760048036038101906101b29190610684565b610386565b6040516101c491906105ab565b60405180910390f35b6101d56103ab565b6040516101e29190610575565b60405180910390f35b6101f36103c5565b604051610200919061063d565b60405180910390f35b610223600480360381019061021e91906105f7565b6103cb565b604051610232939291906106b1565b60405180910390f35b610243610415565b604051610250919061047c565b60405180910390f35b600b60009054906101000a900473ffffffffffffffffffffffffffffffffffffffff1681565b6009805461028c90610717565b80601f01602080910402602001604051908101604052809291908181526020018280546102b890610717565b80156103055780601f106102da57610100808354040283529160200191610305565b820191906000526020600020905b8154815290600101906020018083116102e857829003601f168201915b505050505081565b600260009054906101000a900473ffffffffffffffffffffffffffffffffffffffff1681565b600460009054906101000a900467ffffffffffffffff1681565b600b60149054906101000a900460ff1681565b600c6020528060005260406000206000915054906101000a900460ff1681565b60035481565b600081600b60146101000a81548160ff02191690831515021790555060019050919050565b600460089054906101000a900467ffffffffffffffff1681565b600a5481565b60006020528060005260406000206000915090508060000154908060010160009054906101000a900473ffffffffffffffffffffffffffffffffffffffff16908060020154905083565b600160009054906101000a900473ffffffffffffffffffffffffffffffffffffffff1681565b600073ffffffffffffffffffffffffffffffffffffffff82169050919050565b60006104668261043b565b9050919050565b6104768161045b565b82525050565b6000602082019050610491600083018461046d565b92915050565b600081519050919050565b600082825260208201905092915050565b60005b838110156104d15780820151818401526020810190506104b6565b838111156104e0576000848401525b50505050565b6000601f19601f8301169050919050565b600061050282610497565b61050c81856104a2565b935061051c8185602086016104b3565b610525816104e6565b840191505092915050565b6000602082019050818103600083015261054a81846104f7565b905092915050565b600067ffffffffffffffff82169050919050565b61056f81610552565b82525050565b600060208201905061058a6000830184610566565b92915050565b60008115159050919050565b6105a581610590565b82525050565b60006020820190506105c0600083018461059c565b92915050565b600080fd5b6105d48161045b565b81146105df57600080fd5b50565b6000813590506105f1816105cb565b92915050565b60006020828403121561060d5761060c6105c6565b5b600061061b848285016105e2565b91505092915050565b6000819050919050565b61063781610624565b82525050565b6000602082019050610652600083018461062e565b92915050565b61066181610590565b811461066c57600080fd5b50565b60008135905061067e81610658565b92915050565b60006020828403121561069a576106996105c6565b5b60006106a88482850161066f565b91505092915050565b60006060820190506106c6600083018661062e565b6106d3602083018561046d565b6106e0604083018461062e565b949350505050565b7f4e487b7100000000000000000000000000000000000000000000000000000000600052602260045260246000fd5b6000600282049050600182168061072f57607f821691505b60208210811415610743576107426106e8565b5b5091905056fea26469706673582212209c3c6d36e95145ed2362aeb5a8a940987f6b2ebae725f00f4f62f5cbcc19785464736f6c63430008090033",
  "immutableReferences": {},
  "source": "// SPDX-License-Identifier: MIT\npragma solidity >=0.8.0;\n\nimport \"./ITreasureBay.sol\";\nimport \"./TreasurePool.sol\";\nimport \"@openzeppelin/contracts/token/ERC20/IERC20.sol\";\nimport \"@openzeppelin/contracts/token/ERC20/ERC20.sol\";\n\ncontract TreasureBay is ITreasureBay, TreasurePool {\n  // struct Proposal {\n  //   address recipient; // The address where the `amount` will go to if the proposal is accepted\n  //   address creator; // Address of the shareholder who created the proposal\n  //   uint256 amount; // The amount to transfer to `recipient` if the proposal is accepted.\n  //   string description; // A plain text description of the proposal\n  //   uint256 votingDeadline; // A unix timestamp, denoting the end of the voting period\n  //   bool open; // True if the proposal's votes have yet to be counted, otherwise False\n  //   bool proposalPassed; // True if quorum has been reached, the votes have been counted, and the majority said yes\n  //   bytes32 proposalHash; // A hash to check validity of a proposal\n  //   // Deposit in wei the creator added when submitting their proposal. It\n  //   // is taken from the msg.value of a newProposal call.\n  //   uint256 proposalDeposit;\n  //   // true if more tokens are in favour of the proposal than opposed to it at\n  //   // least `preSupportTime` before the voting deadline\n  //   bool preSupport;\n  //   mapping(address => bool) votedYes; // Simple mapping to check if a shareholder has voted for it\n  //   mapping(address => bool) votedNo; // Simple mapping to check if a shareholder has voted against it\n  // }\n  uint64 private BAY_CREATION_FEE = 0.03 ether;\n  string public name;\n  uint256 public fund;\n  address public creator;\n  // If there are more than 3 members, activated\n  bool public isActivated = false;\n\n  mapping(address => bool) public allowedRecipients;\n\n  // TODO Proposal[] public proposals;\n\n  constructor(string memory name_, uint64 limitNumberOfStakeholders_)\n    payable\n    ITreasureBay()\n  {\n    limitNumberOfStakeholders = limitNumberOfStakeholders_;\n    name = name_;\n    creator = msg.sender;\n    stakeholder = Stakeholder(msg.value, msg.sender, 3 days);\n    // Initialize a staking pool\n    _init(BAY_CREATION_FEE);\n  }\n\n  // function newProposal(\n  //   address _recipient,\n  //   uint256 _amount,\n  //   string memory _description,\n  //   bytes memory _transactionData,\n  //   uint256 _debatingPeriod,\n  //   bool _newCurator\n  // ) external payable override returns (uint256 _proposalID) {}\n\n  // function vote(uint256 _proposalID) external override returns (bool) {}\n\n  // function unvote(uint256 _proposalID) external override returns (bool) {}\n\n  // function executeProposal(uint256 _proposalID, bytes memory _transactionData)\n  //   external\n  //   override\n  //   returns (bool _success)\n  // {}\n\n  // function changeAllowedRecipients(address _recipient, bool _allowed)\n  //   external\n  //   override\n  //   returns (bool _success)\n  // {}\n\n  function toggleIsActivated(bool _isActivated)\n    external\n    override\n    returns (bool _success)\n  {\n    isActivated = _isActivated;\n    return true;\n  }\n\n  // function stake(uint256 _amount)\n  //   external\n  //   payable\n  //   override\n  // {\n  //   IERC20 token = ERC20(msg.sender);\n  //   uint256 erc20balance = token.balanceOf(msg.sender);\n  //   token.approve(address(this), _amount);\n  //   require(_amount <= erc20balance, \"Amount is low\");\n  //   // token.transferFrom(msg.sender, address(this), _amount);\n  //   // if (isActivated == false) {\n  //   //   isActivated = true;\n  //   // }\n  // }\n}\n",
  "sourcePath": "/Users/chungquantin/Desktop/Projects/DecentralizedOpenSource/smart-bay/contracts/features/dao/TreasureBay.sol",
  "compiler": {
    "name": "solc",
    "version": "0.8.9+commit.e5eed63a.Emscripten.clang"
  },
  "schemaVersion": "3.4.3",
  "updatedAt": "2021-11-12T07:14:32.850Z",
  "devdoc": {
    "kind": "dev",
    "methods": {},
    "version": 1
  },
  "userdoc": {
    "kind": "user",
    "methods": {},
    "version": 1
  }
}