{
  "contractName": "TreasurePool",
  "abi": [
    {
      "inputs": [],
      "stateMutability": "nonpayable",
      "type": "constructor"
    },
    {
      "anonymous": false,
      "inputs": [],
      "name": "NewPoolCreated",
      "type": "event"
    },
    {
      "anonymous": false,
      "inputs": [
        {
          "indexed": false,
          "internalType": "address",
          "name": "stakeholder",
          "type": "address"
        }
      ],
      "name": "NewStakeholder",
      "type": "event"
    },
    {
      "anonymous": false,
      "inputs": [
        {
          "indexed": false,
          "internalType": "address",
          "name": "stakeholder",
          "type": "address"
        }
      ],
      "name": "RemoveStakeholder",
      "type": "event"
    },
    {
      "anonymous": false,
      "inputs": [
        {
          "indexed": false,
          "internalType": "address",
          "name": "stakeholder",
          "type": "address"
        },
        {
          "indexed": false,
          "internalType": "uint256",
          "name": "amount",
          "type": "uint256"
        }
      ],
      "name": "Stake",
      "type": "event"
    },
    {
      "anonymous": false,
      "inputs": [
        {
          "indexed": false,
          "internalType": "address",
          "name": "stakeholder",
          "type": "address"
        },
        {
          "indexed": false,
          "internalType": "uint256",
          "name": "amount",
          "type": "uint256"
        }
      ],
      "name": "Unstake",
      "type": "event"
    },
    {
      "inputs": [],
      "name": "admin",
      "outputs": [
        {
          "internalType": "address",
          "name": "",
          "type": "address"
        }
      ],
      "stateMutability": "view",
      "type": "function"
    },
    {
      "inputs": [],
      "name": "daoAddress",
      "outputs": [
        {
          "internalType": "address",
          "name": "",
          "type": "address"
        }
      ],
      "stateMutability": "view",
      "type": "function"
    },
    {
      "inputs": [],
      "name": "limitNumberOfStakeholders",
      "outputs": [
        {
          "internalType": "uint64",
          "name": "",
          "type": "uint64"
        }
      ],
      "stateMutability": "view",
      "type": "function"
    },
    {
      "inputs": [
        {
          "internalType": "address",
          "name": "",
          "type": "address"
        }
      ],
      "name": "stakeholders",
      "outputs": [
        {
          "internalType": "uint256",
          "name": "balance",
          "type": "uint256"
        },
        {
          "internalType": "address",
          "name": "walletAddress",
          "type": "address"
        },
        {
          "internalType": "uint256",
          "name": "claimedInterval",
          "type": "uint256"
        }
      ],
      "stateMutability": "view",
      "type": "function"
    },
    {
      "inputs": [],
      "name": "totalNumberOfStakeholders",
      "outputs": [
        {
          "internalType": "uint64",
          "name": "",
          "type": "uint64"
        }
      ],
      "stateMutability": "view",
      "type": "function"
    },
    {
      "inputs": [],
      "name": "totalStakedAmount",
      "outputs": [
        {
          "internalType": "uint256",
          "name": "",
          "type": "uint256"
        }
      ],
      "stateMutability": "view",
      "type": "function"
    }
  ],
  "bytecode": "0x608060405234801561001057600080fd5b5033600160006101000a81548173ffffffffffffffffffffffffffffffffffffffff021916908373ffffffffffffffffffffffffffffffffffffffff160217905550610398806100616000396000f3fe608060405234801561001057600080fd5b50600436106100625760003560e01c80632131c68c1461006757806328cd149414610085578063567e98f9146100a357806384780fd2146100c1578063c07cfca9146100df578063f851a44014610111575b600080fd5b61006f61012f565b60405161007c9190610240565b60405180910390f35b61008d610155565b60405161009a919061027e565b60405180910390f35b6100ab61016f565b6040516100b891906102b2565b60405180910390f35b6100c9610175565b6040516100d6919061027e565b60405180910390f35b6100f960048036038101906100f491906102fe565b61018f565b6040516101089392919061032b565b60405180910390f35b6101196101d9565b6040516101269190610240565b60405180910390f35b600260009054906101000a900473ffffffffffffffffffffffffffffffffffffffff1681565b600460009054906101000a900467ffffffffffffffff1681565b60035481565b600460089054906101000a900467ffffffffffffffff1681565b60006020528060005260406000206000915090508060000154908060010160009054906101000a900473ffffffffffffffffffffffffffffffffffffffff16908060020154905083565b600160009054906101000a900473ffffffffffffffffffffffffffffffffffffffff1681565b600073ffffffffffffffffffffffffffffffffffffffff82169050919050565b600061022a826101ff565b9050919050565b61023a8161021f565b82525050565b60006020820190506102556000830184610231565b92915050565b600067ffffffffffffffff82169050919050565b6102788161025b565b82525050565b6000602082019050610293600083018461026f565b92915050565b6000819050919050565b6102ac81610299565b82525050565b60006020820190506102c760008301846102a3565b92915050565b600080fd5b6102db8161021f565b81146102e657600080fd5b50565b6000813590506102f8816102d2565b92915050565b600060208284031215610314576103136102cd565b5b6000610322848285016102e9565b91505092915050565b600060608201905061034060008301866102a3565b61034d6020830185610231565b61035a60408301846102a3565b94935050505056fea264697066735822122031156eaaa1e0e63448777d06b32d7346a37b268d845598b7ded58a3c6a812c6264736f6c63430008090033",
  "immutableReferences": {},
  "source": "// SPDX-License-Identifier: MIT\npragma solidity >=0.4.0;\n\ncontract TreasurePool {\n  struct Stakeholder {\n    uint256 balance;\n    address walletAddress;\n    uint256 claimedInterval;\n  }\n  mapping(address => Stakeholder) public stakeholders;\n  address public admin;\n  address public daoAddress;\n  uint256 public totalStakedAmount;\n  uint64 public limitNumberOfStakeholders;\n  uint64 public totalNumberOfStakeholders;\n  Stakeholder stakeholder;\n\n  event NewStakeholder(address stakeholder);\n  event RemoveStakeholder(address stakeholder);\n  event Stake(address stakeholder, uint256 amount);\n  event Unstake(address stakeholder, uint256 amount);\n  event NewPoolCreated();\n\n  constructor() {\n    admin = msg.sender;\n  }\n\n  modifier isStakeholder() {\n    require(stakeholders[msg.sender].balance > 0, \"Not a stakeholder\");\n    _;\n  }\n\n  function _init(uint256 _amount) internal {\n    stakeholder = Stakeholder(_amount, msg.sender, 3 days);\n    stakeholders[msg.sender] = stakeholder;\n    totalStakedAmount += _amount;\n    emit NewPoolCreated();\n  }\n\n  function _stake() internal {\n    if (stakeholders[msg.sender].balance == 0) {\n      stakeholder = Stakeholder(msg.value, msg.sender, 3 days);\n      stakeholders[msg.sender] = stakeholder;\n      emit NewStakeholder(msg.sender);\n    } else {\n      stakeholders[msg.sender].balance += msg.value;\n    }\n    totalStakedAmount += msg.value;\n    emit Stake(msg.sender, msg.value);\n  }\n\n  function _unstake() internal isStakeholder {\n    require(\n      msg.value <= stakeholders[msg.sender].balance,\n      \"Insufficient staked amount\"\n    );\n    payable(msg.sender).transfer(msg.value);\n    stakeholders[msg.sender].balance -= msg.value;\n    if (stakeholders[msg.sender].balance == 0) {\n      delete stakeholders[msg.sender];\n      emit RemoveStakeholder(msg.sender);\n    }\n    totalStakedAmount -= msg.value;\n    emit Unstake(msg.sender, msg.value);\n  }\n\n  function _claim() internal isStakeholder {\n    require(\n      block.timestamp > stakeholders[msg.sender].claimedInterval,\n      \"Too early\"\n    );\n    stakeholders[msg.sender].claimedInterval = 3 days;\n    // TODO Handle interest rate and claimable tokens\n  }\n}\n",
  "sourcePath": "/Users/chungquantin/Desktop/Projects/DecentralizedOpenSource/smart-bay/contracts/features/dao/TreasurePool.sol",
  "compiler": {
    "name": "solc",
    "version": "0.8.9+commit.e5eed63a.Emscripten.clang"
  },
  "schemaVersion": "3.4.3",
  "updatedAt": "2021-11-12T04:42:11.263Z",
  "devdoc": {
    "kind": "dev",
    "methods": {},
    "version": 1
  },
  "userdoc": {
    "kind": "user",
    "methods": {},
    "version": 1
  }
}