{
  "contractName": "TreasureBayFactory",
  "abi": [
    {
      "anonymous": false,
      "inputs": [
        {
          "indexed": true,
          "internalType": "string",
          "name": "name",
          "type": "string"
        },
        {
          "indexed": true,
          "internalType": "address",
          "name": "creator",
          "type": "address"
        },
        {
          "indexed": true,
          "internalType": "address",
          "name": "bayAddress",
          "type": "address"
        }
      ],
      "name": "NewBayCreated",
      "type": "event"
    },
    {
      "inputs": [
        {
          "internalType": "string",
          "name": "name_",
          "type": "string"
        },
        {
          "internalType": "uint64",
          "name": "limitNumberOfMembers_",
          "type": "uint64"
        }
      ],
      "name": "createNewBay",
      "outputs": [
        {
          "internalType": "bool",
          "name": "",
          "type": "bool"
        }
      ],
      "stateMutability": "nonpayable",
      "type": "function"
    },
    {
      "inputs": [],
      "name": "getAllBays",
      "outputs": [
        {
          "internalType": "contract ITreasureBay[]",
          "name": "",
          "type": "address[]"
        }
      ],
      "stateMutability": "view",
      "type": "function",
      "constant": true
    },
    {
      "inputs": [
        {
          "internalType": "address",
          "name": "bayAddress",
          "type": "address"
        }
      ],
      "name": "getBay",
      "outputs": [
        {
          "internalType": "contract ITreasureBay",
          "name": "",
          "type": "address"
        }
      ],
      "stateMutability": "view",
      "type": "function",
      "constant": true
    }
  ],
  "bytecode": "0x608060405234801561001057600080fd5b5061184a806100206000396000f3fe60806040523480156200001157600080fd5b5060043610620000465760003560e01c806349c26440146200004b5780639a41e3ef146200006d578063e20367ba14620000a3575b600080fd5b62000055620000d9565b604051620000649190620004d7565b60405180910390f35b6200008b600480360381019062000085919062000554565b62000169565b6040516200009a919062000597565b60405180910390f35b620000c16004803603810190620000bb91906200075b565b620001d2565b604051620000d09190620007de565b60405180910390f35b606060008054806020026020016040519081016040528092919081815260200182805480156200015f57602002820191906000526020600020905b8160009054906101000a900473ffffffffffffffffffffffffffffffffffffffff1673ffffffffffffffffffffffffffffffffffffffff168152602001906001019080831162000114575b5050505050905090565b6000600160008373ffffffffffffffffffffffffffffffffffffffff1673ffffffffffffffffffffffffffffffffffffffff16815260200190815260200160002060009054906101000a900473ffffffffffffffffffffffffffffffffffffffff169050919050565b6000808383604051620001e59062000381565b620001f29291906200089f565b604051809103906000f0801580156200020f573d6000803e3d6000fd5b5090506000819080600181540180825580915050600190039060005260206000200160009091909190916101000a81548173ffffffffffffffffffffffffffffffffffffffff021916908373ffffffffffffffffffffffffffffffffffffffff16021790555080600160008373ffffffffffffffffffffffffffffffffffffffff1673ffffffffffffffffffffffffffffffffffffffff16815260200190815260200160002060006101000a81548173ffffffffffffffffffffffffffffffffffffffff021916908373ffffffffffffffffffffffffffffffffffffffff1602179055508073ffffffffffffffffffffffffffffffffffffffff166200031462000379565b73ffffffffffffffffffffffffffffffffffffffff16856040516200033a919062000915565b60405180910390207f31e76f752b66dd3322b05ee2c750c9cdd43aa32797450f4e05f8f0f6a62eb28e60405160405180910390a4600191505092915050565b600033905090565b610ee6806200092f83390190565b600081519050919050565b600082825260208201905092915050565b6000819050602082019050919050565b600073ffffffffffffffffffffffffffffffffffffffff82169050919050565b6000819050919050565b60006200040662000400620003fa84620003bb565b620003db565b620003bb565b9050919050565b60006200041a82620003e5565b9050919050565b60006200042e826200040d565b9050919050565b620004408162000421565b82525050565b600062000454838362000435565b60208301905092915050565b6000602082019050919050565b60006200047a826200038f565b6200048681856200039a565b93506200049383620003ab565b8060005b83811015620004ca578151620004ae888262000446565b9750620004bb8362000460565b92505060018101905062000497565b5085935050505092915050565b60006020820190508181036000830152620004f381846200046d565b905092915050565b6000604051905090565b600080fd5b600080fd5b60006200051c82620003bb565b9050919050565b6200052e816200050f565b81146200053a57600080fd5b50565b6000813590506200054e8162000523565b92915050565b6000602082840312156200056d576200056c62000505565b5b60006200057d848285016200053d565b91505092915050565b620005918162000421565b82525050565b6000602082019050620005ae600083018462000586565b92915050565b600080fd5b600080fd5b6000601f19601f8301169050919050565b7f4e487b7100000000000000000000000000000000000000000000000000000000600052604160045260246000fd5b6200060982620005be565b810181811067ffffffffffffffff821117156200062b576200062a620005cf565b5b80604052505050565b600062000640620004fb565b90506200064e8282620005fe565b919050565b600067ffffffffffffffff821115620006715762000670620005cf565b5b6200067c82620005be565b9050602081019050919050565b82818337600083830152505050565b6000620006af620006a98462000653565b62000634565b905082815260208101848484011115620006ce57620006cd620005b9565b5b620006db84828562000689565b509392505050565b600082601f830112620006fb57620006fa620005b4565b5b81356200070d84826020860162000698565b91505092915050565b600067ffffffffffffffff82169050919050565b620007358162000716565b81146200074157600080fd5b50565b60008135905062000755816200072a565b92915050565b6000806040838503121562000775576200077462000505565b5b600083013567ffffffffffffffff8111156200079657620007956200050a565b5b620007a485828601620006e3565b9250506020620007b78582860162000744565b9150509250929050565b60008115159050919050565b620007d881620007c1565b82525050565b6000602082019050620007f56000830184620007cd565b92915050565b600081519050919050565b600082825260208201905092915050565b60005b83811015620008375780820151818401526020810190506200081a565b8381111562000847576000848401525b50505050565b60006200085a82620007fb565b62000866818562000806565b93506200087881856020860162000817565b6200088381620005be565b840191505092915050565b620008998162000716565b82525050565b60006040820190508181036000830152620008bb81856200084d565b9050620008cc60208301846200088e565b9392505050565b600081905092915050565b6000620008eb82620007fb565b620008f78185620008d3565b93506200090981856020860162000817565b80840191505092915050565b6000620009238284620008de565b91508190509291505056fe6080604052666a94d74f430000600860006101000a81548167ffffffffffffffff021916908367ffffffffffffffff1602179055506000600a60146101000a81548160ff02191690831515021790555060405162000ee638038062000ee6833981810160405281019062000074919062000659565b33600160006101000a81548173ffffffffffffffffffffffffffffffffffffffff021916908373ffffffffffffffffffffffffffffffffffffffff16021790555080600460006101000a81548167ffffffffffffffff021916908367ffffffffffffffff1602179055508160099080519060200190620000f6929190620003c7565b50620001076200022360201b60201c565b600a60006101000a81548173ffffffffffffffffffffffffffffffffffffffff021916908373ffffffffffffffffffffffffffffffffffffffff1602179055506040518060600160405280348152602001620001686200022360201b60201c565b73ffffffffffffffffffffffffffffffffffffffff1681526020016203f48081525060056000820151816000015560208201518160010160006101000a81548173ffffffffffffffffffffffffffffffffffffffff021916908373ffffffffffffffffffffffffffffffffffffffff160217905550604082015181600201559050506200021b600860009054906101000a900467ffffffffffffffff1667ffffffffffffffff166200022b60201b60201c565b5050620007ba565b600033905090565b60405180606001604052808281526020013373ffffffffffffffffffffffffffffffffffffffff1681526020016203f48081525060056000820151816000015560208201518160010160006101000a81548173ffffffffffffffffffffffffffffffffffffffff021916908373ffffffffffffffffffffffffffffffffffffffff1602179055506040820151816002015590505060056000803373ffffffffffffffffffffffffffffffffffffffff1673ffffffffffffffffffffffffffffffffffffffff168152602001908152602001600020600082015481600001556001820160009054906101000a900473ffffffffffffffffffffffffffffffffffffffff168160010160006101000a81548173ffffffffffffffffffffffffffffffffffffffff021916908373ffffffffffffffffffffffffffffffffffffffff160217905550600282015481600201559050508060036000828254620003919190620006f8565b925050819055507fa57885c086efe1c0f6542f489d7d1a4fcadad9e0d1010bdb26ba442a09eae68f60405160405180910390a150565b828054620003d59062000784565b90600052602060002090601f016020900481019282620003f9576000855562000445565b82601f106200041457805160ff191683800117855562000445565b8280016001018555821562000445579182015b828111156200044457825182559160200191906001019062000427565b5b50905062000454919062000458565b5090565b5b808211156200047357600081600090555060010162000459565b5090565b6000604051905090565b600080fd5b600080fd5b600080fd5b600080fd5b6000601f19601f8301169050919050565b7f4e487b7100000000000000000000000000000000000000000000000000000000600052604160045260246000fd5b620004e08262000495565b810181811067ffffffffffffffff82111715620005025762000501620004a6565b5b80604052505050565b60006200051762000477565b9050620005258282620004d5565b919050565b600067ffffffffffffffff821115620005485762000547620004a6565b5b620005538262000495565b9050602081019050919050565b60005b838110156200058057808201518184015260208101905062000563565b8381111562000590576000848401525b50505050565b6000620005ad620005a7846200052a565b6200050b565b905082815260208101848484011115620005cc57620005cb62000490565b5b620005d984828562000560565b509392505050565b600082601f830112620005f957620005f86200048b565b5b81516200060b84826020860162000596565b91505092915050565b600067ffffffffffffffff82169050919050565b620006338162000614565b81146200063f57600080fd5b50565b600081519050620006538162000628565b92915050565b6000806040838503121562000673576200067262000481565b5b600083015167ffffffffffffffff81111562000694576200069362000486565b5b620006a285828601620005e1565b9250506020620006b58582860162000642565b9150509250929050565b6000819050919050565b7f4e487b7100000000000000000000000000000000000000000000000000000000600052601160045260246000fd5b60006200070582620006bf565b91506200071283620006bf565b9250827fffffffffffffffffffffffffffffffffffffffffffffffffffffffffffffffff038211156200074a5762000749620006c9565b5b828201905092915050565b7f4e487b7100000000000000000000000000000000000000000000000000000000600052602260045260246000fd5b600060028204905060018216806200079d57607f821691505b60208210811415620007b457620007b362000755565b5b50919050565b61071c80620007ca6000396000f3fe608060405234801561001057600080fd5b506004361061009e5760003560e01c8063567e98f911610066578063567e98f91461014b578063665e3d831461016957806384780fd214610199578063c07cfca9146101b7578063f851a440146101e95761009e565b806302d05d3f146100a357806306fdde03146100c15780632131c68c146100df57806328cd1494146100fd5780634df6d6cc1461011b575b600080fd5b6100ab610207565b6040516100b89190610419565b60405180910390f35b6100c9610231565b6040516100d691906104cd565b60405180910390f35b6100e76102c3565b6040516100f49190610419565b60405180910390f35b6101056102e9565b6040516101129190610512565b60405180910390f35b6101356004803603810190610130919061055e565b610303565b60405161014291906105a6565b60405180910390f35b610153610323565b60405161016091906105da565b60405180910390f35b610183600480360381019061017e9190610621565b610329565b60405161019091906105a6565b60405180910390f35b6101a161034e565b6040516101ae9190610512565b60405180910390f35b6101d160048036038101906101cc919061055e565b610368565b6040516101e09392919061064e565b60405180910390f35b6101f16103b2565b6040516101fe9190610419565b60405180910390f35b6000600a60009054906101000a900473ffffffffffffffffffffffffffffffffffffffff16905090565b606060098054610240906106b4565b80601f016020809104026020016040519081016040528092919081815260200182805461026c906106b4565b80156102b95780601f1061028e576101008083540402835291602001916102b9565b820191906000526020600020905b81548152906001019060200180831161029c57829003601f168201915b5050505050905090565b600260009054906101000a900473ffffffffffffffffffffffffffffffffffffffff1681565b600460009054906101000a900467ffffffffffffffff1681565b600b6020528060005260406000206000915054906101000a900460ff1681565b60035481565b600081600a60146101000a81548160ff02191690831515021790555060019050919050565b600460089054906101000a900467ffffffffffffffff1681565b60006020528060005260406000206000915090508060000154908060010160009054906101000a900473ffffffffffffffffffffffffffffffffffffffff16908060020154905083565b600160009054906101000a900473ffffffffffffffffffffffffffffffffffffffff1681565b600073ffffffffffffffffffffffffffffffffffffffff82169050919050565b6000610403826103d8565b9050919050565b610413816103f8565b82525050565b600060208201905061042e600083018461040a565b92915050565b600081519050919050565b600082825260208201905092915050565b60005b8381101561046e578082015181840152602081019050610453565b8381111561047d576000848401525b50505050565b6000601f19601f8301169050919050565b600061049f82610434565b6104a9818561043f565b93506104b9818560208601610450565b6104c281610483565b840191505092915050565b600060208201905081810360008301526104e78184610494565b905092915050565b600067ffffffffffffffff82169050919050565b61050c816104ef565b82525050565b60006020820190506105276000830184610503565b92915050565b600080fd5b61053b816103f8565b811461054657600080fd5b50565b60008135905061055881610532565b92915050565b6000602082840312156105745761057361052d565b5b600061058284828501610549565b91505092915050565b60008115159050919050565b6105a08161058b565b82525050565b60006020820190506105bb6000830184610597565b92915050565b6000819050919050565b6105d4816105c1565b82525050565b60006020820190506105ef60008301846105cb565b92915050565b6105fe8161058b565b811461060957600080fd5b50565b60008135905061061b816105f5565b92915050565b6000602082840312156106375761063661052d565b5b60006106458482850161060c565b91505092915050565b600060608201905061066360008301866105cb565b610670602083018561040a565b61067d60408301846105cb565b949350505050565b7f4e487b7100000000000000000000000000000000000000000000000000000000600052602260045260246000fd5b600060028204905060018216806106cc57607f821691505b602082108114156106e0576106df610685565b5b5091905056fea26469706673582212209d4212fbdd2bfbd48aaf96035a7297c59df50ed12dc0539473932f8617a32d7564736f6c63430008090033a2646970667358221220f70de5a81e94f576e43c27cecea758267c01ac9a87ce56fcd55f327bef83a13b64736f6c63430008090033",
  "immutableReferences": {},
  "source": "// SPDX-License-Identifier: MIT\npragma solidity >=0.8.0;\n\nimport \"./ITreasureBayFactory.sol\";\nimport \"./TreasureBay.sol\";\nimport \"@openzeppelin/contracts/utils/Context.sol\";\n\ncontract TreasureBayFactory is ITreasureBayFactory, Context {\n  ITreasureBay[] private _listOfBays;\n  mapping(address => ITreasureBay) _mapOfBays;\n\n  function createNewBay(string memory name_, uint64 limitNumberOfMembers_)\n    external\n    override\n    returns (bool)\n  {\n    TreasureBay bay = new TreasureBay(name_, limitNumberOfMembers_);\n    _listOfBays.push(bay);\n    _mapOfBays[address(bay)] = bay;\n\n    emit NewBayCreated(name_, _msgSender(), address(bay));\n    return true;\n  }\n\n  function getAllBays() external view override returns (ITreasureBay[] memory) {\n    return _listOfBays;\n  }\n\n  function getBay(address bayAddress)\n    external\n    view\n    override\n    returns (ITreasureBay)\n  {\n    return _mapOfBays[address(bayAddress)];\n  }\n}\n",
  "sourcePath": "/Users/chungquantin/Desktop/Projects/DecentralizedOpenSource/smart-bay/contracts/features/dao/TreasureBayFactory.sol",
  "compiler": {
    "name": "solc",
    "version": "0.8.9+commit.e5eed63a.Emscripten.clang"
  },
  "schemaVersion": "3.4.3",
  "updatedAt": "2021-11-12T08:27:33.995Z",
  "networkType": "ethereum",
  "devdoc": {
    "kind": "dev",
    "methods": {},
    "version": 1
  },
  "userdoc": {
    "kind": "user",
    "methods": {},
    "version": 1
  }
}