{
  "contractName": "TreasurePool",
  "abi": [
    {
      "inputs": [],
      "stateMutability": "nonpayable",
      "type": "constructor"
    },
    {
      "anonymous": false,
      "inputs": [
        {
          "indexed": false,
          "internalType": "address",
          "name": "owner",
          "type": "address"
        },
        {
          "indexed": false,
          "internalType": "uint256",
          "name": "lockedAmount",
          "type": "uint256"
        }
      ],
      "name": "NewPoolCreated",
      "type": "event"
    },
    {
      "anonymous": false,
      "inputs": [
        {
          "indexed": false,
          "internalType": "address",
          "name": "stakeholder",
          "type": "address"
        }
      ],
      "name": "NewStakeholder",
      "type": "event"
    },
    {
      "anonymous": false,
      "inputs": [
        {
          "indexed": false,
          "internalType": "address",
          "name": "stakeholder",
          "type": "address"
        }
      ],
      "name": "RemoveStakeholder",
      "type": "event"
    },
    {
      "anonymous": false,
      "inputs": [
        {
          "indexed": false,
          "internalType": "address",
          "name": "stakeholder",
          "type": "address"
        },
        {
          "indexed": false,
          "internalType": "uint256",
          "name": "amount",
          "type": "uint256"
        }
      ],
      "name": "Stake",
      "type": "event"
    },
    {
      "anonymous": false,
      "inputs": [
        {
          "indexed": false,
          "internalType": "address",
          "name": "stakeholder",
          "type": "address"
        },
        {
          "indexed": false,
          "internalType": "uint256",
          "name": "amount",
          "type": "uint256"
        }
      ],
      "name": "Unstake",
      "type": "event"
    },
    {
      "inputs": [],
      "name": "admin",
      "outputs": [
        {
          "internalType": "address",
          "name": "",
          "type": "address"
        }
      ],
      "stateMutability": "view",
      "type": "function"
    },
    {
      "inputs": [],
      "name": "daoAddress",
      "outputs": [
        {
          "internalType": "address",
          "name": "",
          "type": "address"
        }
      ],
      "stateMutability": "view",
      "type": "function"
    },
    {
      "inputs": [],
      "name": "limitNumberOfStakeholders",
      "outputs": [
        {
          "internalType": "uint64",
          "name": "",
          "type": "uint64"
        }
      ],
      "stateMutability": "view",
      "type": "function"
    },
    {
      "inputs": [],
      "name": "minimumStakedAmount",
      "outputs": [
        {
          "internalType": "uint64",
          "name": "",
          "type": "uint64"
        }
      ],
      "stateMutability": "view",
      "type": "function"
    },
    {
      "inputs": [],
      "name": "numberOfStakeholders",
      "outputs": [
        {
          "internalType": "uint64",
          "name": "",
          "type": "uint64"
        }
      ],
      "stateMutability": "view",
      "type": "function"
    },
    {
      "inputs": [
        {
          "internalType": "address",
          "name": "",
          "type": "address"
        }
      ],
      "name": "stakeholders",
      "outputs": [
        {
          "internalType": "uint256",
          "name": "balance",
          "type": "uint256"
        },
        {
          "internalType": "address",
          "name": "contractAddress",
          "type": "address"
        },
        {
          "internalType": "uint256",
          "name": "claimedInterval",
          "type": "uint256"
        }
      ],
      "stateMutability": "view",
      "type": "function"
    },
    {
      "inputs": [],
      "name": "totalNumberOfStakeholders",
      "outputs": [
        {
          "internalType": "uint64",
          "name": "",
          "type": "uint64"
        }
      ],
      "stateMutability": "view",
      "type": "function"
    },
    {
      "inputs": [],
      "name": "totalStakedAmount",
      "outputs": [
        {
          "internalType": "uint256",
          "name": "",
          "type": "uint256"
        }
      ],
      "stateMutability": "view",
      "type": "function"
    },
    {
      "inputs": [],
      "name": "createStakeholder",
      "outputs": [
        {
          "components": [
            {
              "internalType": "uint256",
              "name": "balance",
              "type": "uint256"
            },
            {
              "internalType": "address",
              "name": "contractAddress",
              "type": "address"
            },
            {
              "internalType": "uint256",
              "name": "claimedInterval",
              "type": "uint256"
            }
          ],
          "internalType": "struct TreasurePool.Stakeholder",
          "name": "",
          "type": "tuple"
        }
      ],
      "stateMutability": "nonpayable",
      "type": "function"
    },
    {
      "inputs": [],
      "name": "stake",
      "outputs": [],
      "stateMutability": "payable",
      "type": "function"
    },
    {
      "inputs": [],
      "name": "unstake",
      "outputs": [],
      "stateMutability": "payable",
      "type": "function"
    },
    {
      "inputs": [],
      "name": "claim",
      "outputs": [],
      "stateMutability": "payable",
      "type": "function"
    }
  ],
  "bytecode": "0x608060405262093a80600460106101000a81548167ffffffffffffffff021916908367ffffffffffffffff1602179055506203f480600460186101000a81548167ffffffffffffffff021916908367ffffffffffffffff16021790555034801561006857600080fd5b506100776100bc60201b60201c565b600160086101000a81548173ffffffffffffffffffffffffffffffffffffffff021916908373ffffffffffffffffffffffffffffffffffffffff1602179055506100c4565b600033905090565b61141c806100d36000396000f3fe6080604052600436106100a75760003560e01c8063567e98f911610064578063567e98f91461014b57806384780fd214610176578063b898e601146101a1578063c07cfca9146101cc578063f851a4401461020b578063f8d41b9614610236576100a7565b80631e3ab983146100ac5780632131c68c146100d757806328cd1494146101025780632def66201461012d5780633a4b66f1146101375780634e71d92d14610141575b600080fd5b3480156100b857600080fd5b506100c1610261565b6040516100ce9190610df2565b60405180910390f35b3480156100e357600080fd5b506100ec61027b565b6040516100f99190610e4e565b60405180910390f35b34801561010e57600080fd5b506101176102a1565b6040516101249190610df2565b60405180910390f35b6101356102bb565b005b61013f610695565b005b61014961084f565b005b34801561015757600080fd5b506101606109b6565b60405161016d9190610e82565b60405180910390f35b34801561018257600080fd5b5061018b6109bc565b6040516101989190610df2565b60405180910390f35b3480156101ad57600080fd5b506101b66109d6565b6040516101c39190610df2565b60405180910390f35b3480156101d857600080fd5b506101f360048036038101906101ee9190610ece565b6109f0565b60405161020293929190610efb565b60405180910390f35b34801561021757600080fd5b50610220610a3a565b60405161022d9190610e4e565b60405180910390f35b34801561024257600080fd5b5061024b610a60565b6040516102589190610f92565b60405180910390f35b600160009054906101000a900467ffffffffffffffff1681565b600260009054906101000a900473ffffffffffffffffffffffffffffffffffffffff1681565b600460009054906101000a900467ffffffffffffffff1681565b60008060006102c8610d90565b73ffffffffffffffffffffffffffffffffffffffff1673ffffffffffffffffffffffffffffffffffffffff1681526020019081526020016000206000015411610346576040517f08c379a000000000000000000000000000000000000000000000000000000000815260040161033d9061100a565b60405180910390fd5b600460109054906101000a900467ffffffffffffffff1667ffffffffffffffff1642116103a8576040517f08c379a000000000000000000000000000000000000000000000000000000000815260040161039f9061109c565b60405180910390fd5b6000806103b3610d90565b73ffffffffffffffffffffffffffffffffffffffff1673ffffffffffffffffffffffffffffffffffffffff16815260200190815260200160002060000154341115610433576040517f08c379a000000000000000000000000000000000000000000000000000000000815260040161042a90611108565b60405180910390fd5b61043b610d90565b73ffffffffffffffffffffffffffffffffffffffff166108fc349081150290604051600060405180830381858888f19350505050158015610480573d6000803e3d6000fd5b503460008061048d610d90565b73ffffffffffffffffffffffffffffffffffffffff1673ffffffffffffffffffffffffffffffffffffffff16815260200190815260200160002060000160008282546104d99190611157565b9250508190555060008060006104ed610d90565b73ffffffffffffffffffffffffffffffffffffffff1673ffffffffffffffffffffffffffffffffffffffff16815260200190815260200160002060000154141561063a5760008061053c610d90565b73ffffffffffffffffffffffffffffffffffffffff1673ffffffffffffffffffffffffffffffffffffffff1681526020019081526020016000206000808201600090556001820160006101000a81549073ffffffffffffffffffffffffffffffffffffffff02191690556002820160009055505060018060008282829054906101000a900467ffffffffffffffff166105d5919061118b565b92506101000a81548167ffffffffffffffff021916908367ffffffffffffffff1602179055507f6f1eb9379ef97a9fc8efe5b92a387d1291f5c65d0929df551aea69371e05403c610624610d90565b6040516106319190610e4e565b60405180910390a15b346003600082825461064c9190611157565b925050819055507f85082129d87b2fe11527cb1b3b7a520aeb5aa6913f88a3d8757fe40d1db02fdd61067c610d90565b3460405161068b9291906111bf565b60405180910390a1565b600034116106d8576040517f08c379a00000000000000000000000000000000000000000000000000000000081526004016106cf90611234565b60405180910390fd5b600560009054906101000a900467ffffffffffffffff1667ffffffffffffffff16341161073a576040517f08c379a000000000000000000000000000000000000000000000000000000000815260040161073190611234565b60405180910390fd5b6000806000610747610d90565b73ffffffffffffffffffffffffffffffffffffffff1673ffffffffffffffffffffffffffffffffffffffff16815260200190815260200160002060000154141561079557610793610a60565b505b346000806107a1610d90565b73ffffffffffffffffffffffffffffffffffffffff1673ffffffffffffffffffffffffffffffffffffffff16815260200190815260200160002060000160008282546107ed9190611254565b9250508190555034600360008282546108069190611254565b925050819055507febedb8b3c678666e7f36970bc8f57abf6d8fa2e828c0da91ea5b75bf68ed101a610836610d90565b346040516108459291906111bf565b60405180910390a1565b600080600061085c610d90565b73ffffffffffffffffffffffffffffffffffffffff1673ffffffffffffffffffffffffffffffffffffffff16815260200190815260200160002060000154116108da576040517f08c379a00000000000000000000000000000000000000000000000000000000081526004016108d19061100a565b60405180910390fd5b6000806108e5610d90565b73ffffffffffffffffffffffffffffffffffffffff1673ffffffffffffffffffffffffffffffffffffffff168152602001908152602001600020600201544211610964576040517f08c379a000000000000000000000000000000000000000000000000000000000815260040161095b906112f6565b60405180910390fd5b6203f480600080610973610d90565b73ffffffffffffffffffffffffffffffffffffffff1673ffffffffffffffffffffffffffffffffffffffff16815260200190815260200160002060020181905550565b60035481565b600460089054906101000a900467ffffffffffffffff1681565b600560009054906101000a900467ffffffffffffffff1681565b60006020528060005260406000206000915090508060000154908060010160009054906101000a900473ffffffffffffffffffffffffffffffffffffffff16908060020154905083565b600160089054906101000a900473ffffffffffffffffffffffffffffffffffffffff1681565b610a68610d98565b600460009054906101000a900467ffffffffffffffff1667ffffffffffffffff16600160009054906101000a900467ffffffffffffffff1667ffffffffffffffff161115610aeb576040517f08c379a0000000000000000000000000000000000000000000000000000000008152600401610ae290611388565b60405180910390fd5b604051806060016040528060008152602001610b05610d90565b73ffffffffffffffffffffffffffffffffffffffff168152602001600460189054906101000a900467ffffffffffffffff1667ffffffffffffffff16815250600080610b4f610d90565b73ffffffffffffffffffffffffffffffffffffffff1673ffffffffffffffffffffffffffffffffffffffff1681526020019081526020016000206000820151816000015560208201518160010160006101000a81548173ffffffffffffffffffffffffffffffffffffffff021916908373ffffffffffffffffffffffffffffffffffffffff1602179055506040820151816002015590505060018060008282829054906101000a900467ffffffffffffffff16610c0c91906113a8565b92506101000a81548167ffffffffffffffff021916908367ffffffffffffffff1602179055507f45353ebbf1c4a0468ba13a94bc212a3b8fc4b624385aa0e9c3fa07045d7d827d600080610c5e610d90565b73ffffffffffffffffffffffffffffffffffffffff1673ffffffffffffffffffffffffffffffffffffffff16815260200190815260200160002060010160009054906101000a900473ffffffffffffffffffffffffffffffffffffffff16604051610cc99190610e4e565b60405180910390a1600080610cdc610d90565b73ffffffffffffffffffffffffffffffffffffffff1673ffffffffffffffffffffffffffffffffffffffff168152602001908152602001600020604051806060016040529081600082015481526020016001820160009054906101000a900473ffffffffffffffffffffffffffffffffffffffff1673ffffffffffffffffffffffffffffffffffffffff1673ffffffffffffffffffffffffffffffffffffffff168152602001600282015481525050905090565b600033905090565b604051806060016040528060008152602001600073ffffffffffffffffffffffffffffffffffffffff168152602001600081525090565b600067ffffffffffffffff82169050919050565b610dec81610dcf565b82525050565b6000602082019050610e076000830184610de3565b92915050565b600073ffffffffffffffffffffffffffffffffffffffff82169050919050565b6000610e3882610e0d565b9050919050565b610e4881610e2d565b82525050565b6000602082019050610e636000830184610e3f565b92915050565b6000819050919050565b610e7c81610e69565b82525050565b6000602082019050610e976000830184610e73565b92915050565b600080fd5b610eab81610e2d565b8114610eb657600080fd5b50565b600081359050610ec881610ea2565b92915050565b600060208284031215610ee457610ee3610e9d565b5b6000610ef284828501610eb9565b91505092915050565b6000606082019050610f106000830186610e73565b610f1d6020830185610e3f565b610f2a6040830184610e73565b949350505050565b610f3b81610e69565b82525050565b610f4a81610e2d565b82525050565b606082016000820151610f666000850182610f32565b506020820151610f796020850182610f41565b506040820151610f8c6040850182610f32565b50505050565b6000606082019050610fa76000830184610f50565b92915050565b600082825260208201905092915050565b7f4e6f742061207374616b65686f6c646572000000000000000000000000000000600082015250565b6000610ff4601183610fad565b9150610fff82610fbe565b602082019050919050565b6000602082019050818103600083015261102381610fe7565b9050919050565b7f4d757374207374616b656420666f7220372064617973206265666f726520756e60008201527f7374616b696e6700000000000000000000000000000000000000000000000000602082015250565b6000611086602783610fad565b91506110918261102a565b604082019050919050565b600060208201905081810360008301526110b581611079565b9050919050565b7f496e73756666696369656e74207374616b656420616d6f756e74000000000000600082015250565b60006110f2601a83610fad565b91506110fd826110bc565b602082019050919050565b60006020820190508181036000830152611121816110e5565b9050919050565b7f4e487b7100000000000000000000000000000000000000000000000000000000600052601160045260246000fd5b600061116282610e69565b915061116d83610e69565b9250828210156111805761117f611128565b5b828203905092915050565b600061119682610dcf565b91506111a183610dcf565b9250828210156111b4576111b3611128565b5b828203905092915050565b60006040820190506111d46000830185610e3f565b6111e16020830184610e73565b9392505050565b7f696e76616c6964207374616b656420616d6f756e740000000000000000000000600082015250565b600061121e601583610fad565b9150611229826111e8565b602082019050919050565b6000602082019050818103600083015261124d81611211565b9050919050565b600061125f82610e69565b915061126a83610e69565b9250827fffffffffffffffffffffffffffffffffffffffffffffffffffffffffffffffff0382111561129f5761129e611128565b5b828201905092915050565b7f546f6f206561726c790000000000000000000000000000000000000000000000600082015250565b60006112e0600983610fad565b91506112eb826112aa565b602082019050919050565b6000602082019050818103600083015261130f816112d3565b9050919050565b7f73757270617373206c696d6974206e756d626572206f66207374616b65686f6c60008201527f6465727300000000000000000000000000000000000000000000000000000000602082015250565b6000611372602483610fad565b915061137d82611316565b604082019050919050565b600060208201905081810360008301526113a181611365565b9050919050565b60006113b382610dcf565b91506113be83610dcf565b92508267ffffffffffffffff038211156113db576113da611128565b5b82820190509291505056fea26469706673582212201ba7dc9e7f9fcb360a0b0a6839d8f3a52c2f5fd1d2d6e6e856b1683367652fbe64736f6c63430008090033",
  "immutableReferences": {},
  "source": "// SPDX-License-Identifier: MIT\npragma solidity >=0.4.0;\n\nimport \"@openzeppelin/contracts/utils/Context.sol\";\n\ncontract TreasurePool is Context {\n  struct Stakeholder {\n    uint256 balance;\n    address contractAddress;\n    uint256 claimedInterval;\n  }\n  mapping(address => Stakeholder) public stakeholders;\n  uint64 public numberOfStakeholders;\n  address public admin;\n  address public daoAddress;\n  uint256 public totalStakedAmount;\n  uint64 public limitNumberOfStakeholders;\n  uint64 public totalNumberOfStakeholders;\n  uint64 private _lockedDuration = 7 days;\n  uint64 private _defaultClaimedInterval = 3 days;\n  uint64 public minimumStakedAmount;\n\n  event NewStakeholder(address stakeholder);\n  event RemoveStakeholder(address stakeholder);\n  event Stake(address stakeholder, uint256 amount);\n  event Unstake(address stakeholder, uint256 amount);\n  event NewPoolCreated(address owner, uint256 lockedAmount);\n\n  constructor() {\n    admin = _msgSender();\n  }\n\n  modifier isStakeholder() {\n    require(stakeholders[_msgSender()].balance > 0, \"Not a stakeholder\");\n    _;\n  }\n\n  function createStakeholder() public returns (Stakeholder memory) {\n    require(\n      numberOfStakeholders <= limitNumberOfStakeholders,\n      \"surpass limit number of stakeholders\"\n    );\n    stakeholders[_msgSender()] = Stakeholder(\n      0,\n      _msgSender(),\n      _defaultClaimedInterval\n    );\n    numberOfStakeholders += 1;\n    emit NewStakeholder(stakeholders[_msgSender()].contractAddress);\n    return stakeholders[_msgSender()];\n  }\n\n  function stake() public payable {\n    require(msg.value > 0, \"invalid staked amount\");\n    require(msg.value > minimumStakedAmount, \"invalid staked amount\");\n\n    // Check if the stakeholder is added or not\n    if (stakeholders[_msgSender()].balance == 0) {\n      createStakeholder();\n    }\n    stakeholders[_msgSender()].balance += msg.value;\n    totalStakedAmount += msg.value;\n    emit Stake(_msgSender(), msg.value);\n  }\n\n  function unstake() public payable isStakeholder {\n    require(\n      block.timestamp > _lockedDuration,\n      \"Must staked for 7 days before unstaking\"\n    );\n    require(\n      msg.value <= stakeholders[_msgSender()].balance,\n      \"Insufficient staked amount\"\n    );\n    payable(_msgSender()).transfer(msg.value);\n    stakeholders[_msgSender()].balance -= msg.value;\n    if (stakeholders[_msgSender()].balance == 0) {\n      delete stakeholders[_msgSender()];\n      numberOfStakeholders -= 1;\n      emit RemoveStakeholder(_msgSender());\n    }\n    totalStakedAmount -= msg.value;\n    emit Unstake(_msgSender(), msg.value);\n  }\n\n  function claim() public payable isStakeholder {\n    require(\n      block.timestamp > stakeholders[_msgSender()].claimedInterval,\n      \"Too early\"\n    );\n    stakeholders[_msgSender()].claimedInterval = 3 days;\n    // TODO Handle interest rate and claimable tokens\n  }\n}\n",
  "sourcePath": "/Users/chungquantin/Desktop/Projects/DecentralizedOpenSource/smart-bay/contracts/features/dao/TreasurePool.sol",
  "compiler": {
    "name": "solc",
    "version": "0.8.9+commit.e5eed63a.Emscripten.clang"
  },
  "schemaVersion": "3.4.3",
  "updatedAt": "2021-11-12T13:15:41.936Z",
  "devdoc": {
    "kind": "dev",
    "methods": {},
    "version": 1
  },
  "userdoc": {
    "kind": "user",
    "methods": {},
    "version": 1
  }
}